:020000040800F2
:1000000000000220E9BF0B086DC00B083D43060845
:100010006DC00B086DC00B086DC00B080000000020
:100020000000000000000000000000006DC00B0890
:100030006DC00B08000000006DC00B08E5E304086C
:100040006DC00B086DC00B086DC00B086DC00B08B0
:100050006DC00B086DC00B088DB7040891B704087C
:1000600095B7040899B704089DB70408293E040809
:100070003D3E0408513E0408653E0408793E0408EC
:100080008D3E0408A13E04086DC00B086DC00B082E
:100090006DC00B086DC00B086DC00B08A1B704083C
:1000A0006DC00B086DC00B086DC00B08A548040897
:1000B000B9480408CD480408E1480408513104084F
:1000C0004531040885310408793104086DC00B08F6
:1000D0006DC00B0835530408415304084D53040800
:1000E000A5B704086DC00B08000000001D490408F6
:1000F0006D4904089549040809490408B53E0408F7
:100100006DC00B086DC00B08F54804086DC00B08E6
:1001100059530408655304086DC00B08B96E0408F0
:10012000C93E0408DD3E0408F13E0408053F04080A
:10013000193F04086DC00B086DC00B086DC00B089B
:1001400000000000000000000000000000000000AF
:100150002D3F0408413F0408553F04086DC00B08BB
:10016000B9310408AD3104086DC00B086DC00B082F
:100170006DC00B086DC00B086DC00B0800000000BF
:100180006DC00B086DC00B08715304087D53040843
:100190006DC00B086DC00B086DC00B086DC00B085F
:1001A0006DC00B086DC00B086DC00B086DC00B084F
:1001B0006DC00B086DC00B086DC00B086DC00B083F
:1001C0006DC00B086DC00B086DC00B086DC00B082F
:1001D0006DC00B08655A04086DC00B086DC00B0894
:1001E0006DC00B086DC00B086DC00B086DC00B080F
:1001F0006DC00B086DC00B086DC00B086DC00B08FF
:100200006DC00B086DC00B086DC00B086DC00B08EE
:100210003149040845490408594904086DC00B08D0
:100220006DC00B086DC00B086DC00B08000000000E
:100230006DC00B086DC00B08000000006DC00B08FE
:100240006DC00B086DC00B086DC00B086DC00B08AE
:100250006DC00B086DC00B086DC00B086DC00B089E
:100260006DC00B086DC00B086DC00B086DC00B088E
:100270006DC00B086DC00B086DC00B0800000000BE
:100280006DC00B08000000006DC00B0800000000EE
:08029000000000006DC00B0826
:08029800D8700B00010000000A
:1002A000907C01240207000002001300B07C0124AE
:1002B0000112000000007600D07C0124011400002F
:1002C00000001E00F07C0124011A000000000D0057
:1002D000107D0124011B000000002C00307D012452
:1002E0000115000000000C00507D012401160000E3
:1002F00000000C00707D0124011C000000000E00B5
:10030000907D0124011D000000001E00B07D01242D
:100310000117000000000C00D07D0124011800002E
:1003200000000E00F07D01240119000000000C0007
:10033000107E0124011F000000000C00307E01240B
:100340000120000000000C00507E01240129010062
:1003500000001800707E0124012100000000480008
:10036000907E01240122000000004900B07E01249B
:100370000123000000004A00D07E01240124000077
:1003800000004B00F07E01240125000000004C001D
:10039000107F01240126000000004D00307F012461
:1003A0000127000000004E00507F012401280000BA
:1003B00000004F00707F0124012C00000000290084
:1003C000907F0124012D010000002900B07F01244D
:1003D000012E010000007000D07F012401300000D8
:1003E00000003100F07F0124012F010000005200C5
:1003F0001080012401310100000028003080012418
:100400000132010000002800508001240135000065
:1004100000003C0070800124013800000000200032
:020000040804EE
:100000000268554938B5554B554D564CAA4218BF54
:100010009A420CBF012300238A4208BF43F0010328
:100020003031A24208BF43F0010330348A4208BF96
:1000300043F001033031A24208BF43F001033034E2
:100040008A4208BF43F0010301F55C71A24208BF78
:1000500043F0010304F55C748A4208BF43F00103D6
:100060003031A24208BF43F0010330348A4208BF56
:1000700043F001033031A24208BF43F001033034A2
:100080008A4208BF43F001033031A24208BF43F067
:1000900001038A4208BF43F0010313B9324B9A426D
:1000A00008D1042380F83530136823F0010313606E
:1000B000002038BD2D4B2E4D1168AA4218BF9A4220
:1000C0002C4C21F00E0105F13C050CBF012300234F
:1000D0001160A24208BF43F0010311682834AA420C
:1000E00008BF43F0010321F00101A24208BF43F021
:1000F000010314341160A24208BF43F001031E49FA
:100100008A4208BF43F0010313B91C4B9A4217D12E
:100110000123856DD0E91714226801F01F0122F434
:1001200080728B4022606B60C36ED0E919215160F0
:1001300033B11A68D0E91C1422F480721A604C6042
:1001400001210022036D80F8351080F83420002B47
:10015000AED09847ACE700BF40000240100002401C
:100160002800024058000240B80402401C540258C3
:10017000085402583054025880540258945402587B
:10018000016800220B6880F842205A0410B40ED592
:100190000B6823F480430B6090F84130292B10D07A
:1001A00090F841302A2B24D05DF8044B70471B0493
:1001B000F2D50B6823F400430B6090F84130292BF3
:1001C000EED12822212380F841200022036390F8F9
:1001D00041300C6803F02803282B14BF6FF0F203A2
:1001E0006FF0420323405DF8044B0B6080F8402021
:1001F00070472822222380F841200022036390F8D0
:1002000041300C6803F02803282B14BF6FF0F4036F
:100210006FF0440323405DF8044B0B6080F84020EE
:10022000704700BF0023202210B4174C4363C46200
:10023000036380F8412080F842304B07026811D5F3
:10024000526A436A1A70436A028D013343624AB1AB
:10025000438D013A013B02859BB24385436C43F0D9
:10026000040343640368102490F84120002190F8AF
:1002700041201A6822F0FE021A60DC615DF8044B2E
:1002800080F84010704700BF0000FFFF70B5574B6B
:10029000002590F84120044680F84250283AC36275
:1002A0004585436C022A41EA0301036841642FD863
:1002B00090F8411090F84120282001F0280102F028
:1002C0002802282914BFF6214621282A1A680CBFC3
:1002D000C9436FF0F6010A4045491A6084F84100AD
:1002E000A06B226B616318B1112A42D0212A40D041
:1002F000E06B18B1122A51D0222A4FD094F8413025
:10030000602B4FF000032DD0236384F8403070BD84
:1003100090F8412090F841201A6822F0FE021A60FD
:100320009A69920700D59D629A69D60703D49A69A3
:1003300042F001029A6194F84120602A10D02022F4
:1003400084F841209A6995060AD59A69D00605D5A0
:100350001022DA61626C42F0040262642022DA61E7
:100360000021BDE7202284F8403084F84120236337
:1003700070BD1A6851042CD490F83530012BBDD0D3
:1003800000221C4B036584F8402090F83520022A97
:1003900024D080224265BDE8704018471A681204D4
:1003A00003D51A6822F400421A6090F83530012B08
:1003B000A4D000220F4B036584F8402090F835202C
:1003C000022AE6D1FFF71CFE0028A0D0E06B036DE7
:1003D000E1E71A6822F480421A60CDE7FFF710FEC9
:1003E000002894D0A06B036DD5E700BF0000FFFF8D
:1003F00071040408C107040803689A69196810B4F5
:10040000D40528D50C0606D4416C11F00B0F1FD172
:100410005DF8044B7047416C4FF4807441F001016A
:1004200041645105DC6120D5416C4FF48064920534
:1004300041F008014164DC61E6D5426C4FF4007183
:1004400042F002024264D961416C11F00B0FDFD01F
:100450005DF8044B1AE7540502D50906E4D4D3E746
:100460009405D1D50906E8D4CEE79205E5D4CBE7CB
:10047000F8B590F840300D46C16A012B00F00881B4
:100480000123AE06044680F8403001D5900656D4CC
:10049000EB0619D5D70617D5638D9BB2002B40F01C
:1004A000F98094F84130B1F1007FDBB240F0D580A3
:1004B000282B40F0D28029462046FFF7B3FE0023C8
:1004C000184684F84030F8BD68071AD42F0701D5C4
:1004D00016074AD4A807F2D59307F0D5638D9BB2CF
:1004E000002B00F0FA80616A236811F8010B228D5D
:1004F0009862638D013A6162013B22859BB26385FC
:10050000DDE75307E2D5638D9BB26BB12268636A66
:10051000526A1A70638D606A228D013B0130013A84
:100520009BB2606222856385638D9BB2002BC6D12E
:1005300011F5803FC3D02046FFF722FEBFE72368B6
:1005400020211868E66A94F84120D961213A092AE5
:100550001ED8DFE812F0C70015001D001D001D00A9
:100560001D001D00F000C700150094F841302268FE
:1005700003F02803282B00F0C5800823D3619EE7F1
:1005800094F841201A6822F0FC021A6022222263A9
:100590005A68894942F400425A605A680A405A60CF
:1005A0009A69910701D500229A629A69D20703D409
:1005B0009A6942F001029A6147047BD51A6822F4D5
:1005C00080421A60A26B1AB111684A6892B26285C1
:1005D0006A070BD55A6A25F00405636A1A70636AC4
:1005E00001336362238D002B40F08580638D9BB2C5
:1005F0001BB1636C43F004036364EB061AD5C706B2
:1006000018D5638D9BB2002B40F0AA8094F841303E
:10061000282B03D1B6F1007F00F0C98094F8413057
:1006200016F5803F2268DBB202D0292B00F0AD80A6
:100630001023D361002384F84230666C6363002E7C
:1006400040F08480E36A5D4DAB423DD194F8413087
:10065000202384F84130266331E794F84120236851
:10066000292A4FF01002DA617FF429AF11F5803F9B
:100670003FF425AF9A69960701D500229A629A69DC
:10068000D5073FF558AF9A6942F001029A6152E7E7
:100690000220F8BD23681022DA61636C43F0040382
:1006A000636431F080737FF40AAF616C2046FFF71A
:1006B000EDFD04E701048BD51A6822F400421A60AC
:1006C000E26B002A80D183E72046FFF759FD202303
:1006D000E56284F841302663F1E631F080737FF4FF
:1006E000EEAE28E794F841201A6822F0FA021A6068
:1006F000212222634CE7013B2385638D013B9BB2A2
:10070000638573E7E1689369022990699368D56806
:1007100036D1C3F3C21383EA104313F006032FD17B
:10072000A16C0131A164A16C02297FF4C8AE08213B
:10073000A364D161C3E694F8412094F841201A687B
:1007400022F0FE021A600022226321E7616C20463B
:10075000FFF79CFD94F84130282B7FF4B0AEAAE659
:1007600023681022DA61636C43F00403636436F09B
:1007700080737FF45FAF616C2046FFF787FD59E718
:10078000136823F0B803136099E61023D3619369CB
:10079000980701D5002393629369D90703D493691D
:1007A00043F0010393612046FFF7EAFC42E7294644
:1007B0002046FFF737FD3DE700E800FE0000FFFFA1
:1007C000836B9A6B0AB100211165DA6B0AB10021C3
:1007D000116593F84120602A05D000221A63002297
:1007E00083F8402070470022202183F841101A63CB
:1007F000002283F840207047016870B4CC072DD5E3
:10080000914A1369926A03F03803102B00F0E180DB
:10081000182B00F0D9804368B3F5803F00F00581C4
:10082000002B00F05A81B3F5A02F874B1A6800F017
:10083000678222F480321A601A6822F480221A60D9
:10084000824B41F2883C804C1D6804E01A68521BC0
:10085000624500F23F8122689603F7D58A0768D483
:10086000CD0631D5784A1369926A03F03803082B14
:1008700000F0C080182B00F0B880C369724C002BC8
:1008800000F05F812268714B42F0800222601D6897
:1008900004E01A68521B022A00F21C812268D20569
:1008A000F7D56B4B026A1D6841F20303B3EB154F9A
:1008B000C0F044826368202A23F0F8430CBF43F061
:1008C000804343EA826363600D0713D543695E4C3E
:1008D000002B00F01881626F5C4B42F001026267EE
:1008E0001D6804E01A68521B022A00F2F380626F4E
:1008F0009207F7D58C0613D58369534C002B00F073
:1009000011812268514B42F4805222601D6804E03C
:100910001A68521B022A00F2DD8022689204F7D581
:10092000490700F18880436A002B40F0BC8000201A
:1009300059E0454A1369926A13F038032BD1424AB1
:10094000C3681268520701D5002B4BD03E4C226879
:1009500022F019021A433D4B22601D6804E01A6818
:10096000521B022A00F2B68022685607F7D5384B90
:1009700002691D6841F20303B3EB154F6368C0F0D1
:10098000028123F47C33402A0CBF43F4003343EA52
:100990000233636064E7182B00F0F180C3682A4CCF
:1009A000002B00F0DD80226822F019021A43274B49
:1009B00022601D6804E01A68521B022A00F28A8035
:1009C00022685207F7D5D2E702F00302022A7FF429
:1009D00022AF1D4B1B689B037FF540AF4368002B84
:1009E0007FF43CAF012070BC704702F00302012A83
:1009F0007FF443AF144B1B68DC0502D5C369802B21
:100A0000F0D1134C41F20303026A2468B3EB144F94
:100A1000C0F0BF80202A00F09E810B4C636823F059
:100A2000F84343EA826363604EE7074A136843F47E
:100A30008033136004E70749044B0A6842F480726C
:100A40000A601C680CE000BF0044025880290024A2
:100A50000010005C004802581A68121B642A39D83A
:100A60000A68D505F8D58268012A00F06E81002A4F
:100A700000F04E81052A9F4A116F00F0748121F029
:100A800001011167116F21F0040111671D6841F226
:100A90008834984903E01A68521BA2421AD80A6F98
:100AA0009207F8D53FE793490A6902F03802182AFD
:100AB00000F0D5800A68022B8F4B22F080720A600A
:100AC0006FD018680A6892017FF531AF1A68121A60
:100AD000022AF7D9032070BC7047864C41F2883552
:100AE000854B226822F480322260226822F4802220
:100AF00022601E6803E01A68921BAA42EAD82268A4
:100B00009203F8D4AAE6626F7B4B22F0010262677F
:100B10001D6803E01A68521B022ADBD8626F960731
:100B2000F8D4E7E62268744B22F4805222601D68F4
:100B300003E01A68521B022ACCD822689604F8D423
:100B4000EEE622686C4B22F0800222601D6803E012
:100B50001A68521B022ABDD82268D605F8D4B3E61B
:100B60002268654B22F0010222601D6803E01A68CA
:100B7000521B022AAED822685607F8D470E69407B2
:100B80007FF40CAFDBE623F0FE4343EA02636360CD
:100B900066E6584CE36823F07C5343EA0263E36063
:100BA00092E61C6803E01A68121B022A92D80A68AF
:100BB0009501F8D48C6A514A2240846A2243C46A5F
:100BC00042EA04128A62D0E90D24013A013C520241
:100BD000240492B204F4FE042243046B013CC4F3E7
:100BE00008042243C46B013C240604F0FE44224363
:100BF0000A63CA6A22F00102CA624A6B846C6FF30C
:100C0000CF0242EAC4024A63CA6A046C22F00C02B0
:100C10002243384CCA62CA6A406C22F00202024384
:100C2000CA62CA6A42F48032CA62CA6A42F40032B4
:100C3000CA62CA6A42F48022CA62CA6A42F00102E7
:100C4000CA620A6842F080720A60196822689001DC
:100C50003FF56DAE1A68521A022AF7D93AE7012B0E
:100C60008A6A0D6B3FF4BEAE02F00303846AA342AE
:100C70007FF4B8AEC2F30512C36A9A427FF4B2AEF3
:100C8000036BC5F30802013B9A427FF4ABAE436BA2
:100C9000C5F34622013B9A427FF4A4AE836BC5F3B1
:100CA0000642013B9A427FF49DAEC36BC5F30665D5
:100CB000013B9D427FF496AE4B6B816CC3F3CC033A
:100CC00099423FF434AE0B480B4BC26A22F001024A
:100CD000C2621A6818688242FCD0064A536B6FF3EE
:100CE000CF0343EAC1035363D36A43F00103D362E2
:100CF0001DE600BF00440258802900240CFCFFFFC1
:100D000042F480221A601A6842F480321A6097E531
:100D1000194941F288350A6F22F001020A670A6F09
:100D200022F004020A671C6804E01A68121BAA4237
:100D30003FF6D0AE0A6F9607F7D4F4E5E36823F0E8
:100D40007C5343EA0263E360BEE50B490A6F42F05D
:100D500001020A679AE6084A536823F0F84343F011
:100D600080435360B0E541F004011167116F41F019
:100D7000010111678AE600BF00440258334B30B4CA
:100D8000996A9C6ADD6A14F47C7F5A6BC4F305107F
:100D900036D0C2F3CC0205F0010501F0030107EEE5
:100DA000900A05FB02F20129B8EEE77A06EE902AD6
:100DB000FAEEE96A02D0022942D019B3DFED247AB3
:100DC00087EE876A1B6BC3F3080307EE903AF7EED2
:100DD000005AF8EEE77A77EEA67A77EEA57A67EE14
:100DE000867A1A4B1B6BC3F34623013307EE103A86
:100DF000F8EEC76A87EEA67AFCEEC77A17EE900A7D
:100E000030BC70471A6892061DD51968F7EE005A73
:100E1000104A1B6BC1F3C101C3F30803CA4007EEBC
:100E2000903A06EE102AF8EEE77AB8EEC66A77EE48
:100E3000A66AC6EE077A36EEA57A67EE877AD0E71D
:100E4000DFED057ABCE7DFED057AB9E7004402582B
:100E50000024744A0090D0030024F44A0024744C07
:100E6000474A70B4946A956AD66A15F47C3FC5F314
:100E70000533D16B5BD0C1F3CC01C6F3001604F08F
:100E8000030407EE903A06FB01F1012CB8EEE77A75
:100E900006EE901AFAEEE96A03D0022C6AD0002C12
:100EA0004AD0DFED387A87EE876A936BC3F3080385
:100EB00007EE903AF7EE005AF8EEE77A77EEA67A68
:100EC00077EEA57A67EE867A2D4AB7EE006A936BC5
:100ED000C3F3462307EE103AB8EEC77A70BC37EE7C
:100EE000067AC7EE876AFCEEE66AC0ED006A936B8D
:100EF000C3F3064307EE103AB8EEC77A37EE067A28
:100F0000C7EE876AFCEEE66AC0ED016A936BC3F335
:100F1000066306EE903AF8EEE66A76EE866A87EEAB
:100F2000A67AFCEEC77A17EE903A8360704770BCE1
:100F3000C0E900338360704713689B061DD51468B1
:100F4000F7EE005A936B1049C4F3C102C3F30803D0
:100F5000D14007EE903A06EE101AF8EEE77AB8EEB6
:100F6000C66A77EEA66AC6EE077A36EEA57A67EE0F
:100F7000877AA9E7DFED057A95E7DFED057A92E755
:100F8000004402580024744A0090D0030024F44A1C
:100F90000024744C474A70B4946A956AD66A15F076
:100FA0007C7FC5F30553516C5BD0C1F3CC01C6F314
:100FB000002604F0030407EE903A06FB01F1012C31
:100FC000B8EEE77A06EE901AFAEEE96A03D0022C40
:100FD0006AD0002C4AD0DFED387A87EE876A136C2E
:100FE000C3F3080307EE903AF7EE005AF8EEE77AFB
:100FF00077EEA67A77EEA57A67EE867A2D4AB7EE77
:10100000006A136CC3F3462307EE103AB8EEC77AB2
:1010100070BC37EE067AC7EE876AFCEEE66AC0ED72
:10102000006A136CC3F3064307EE103AB8EEC77AB2
:1010300037EE067AC7EE876AFCEEE66AC0ED016A13
:10104000136CC3F3066306EE903AF8EEE66A76EEAA
:10105000866A87EEA67AFCEEC77A17EE903A83602E
:10106000704770BCC0E900338360704713689B060B
:101070001DD51468F7EE005A136C1049C4F3C10271
:10108000C3F30803D14007EE903A06EE101AF8EECB
:10109000E77AB8EEC66A77EEA66AC6EE077A36EE4B
:1010A000A57A67EE877AA9E7DFED057A95E7DFEDA8
:1010B000057A92E7004402580024744A0090D00355
:1010C0000024F44A0024744CF0B5354AB0F1804F46
:1010D000344DA0EB02020368A0EB050E4C69B2FA96
:1010E00082F28F68BEFA8EFE0E684FEA52124FEA05
:1010F0005E1E1FD0F2B9DFF8B8C0604537D00CF5DE
:10110000806C604533D00CF5806C604512D0BEF128
:10111000000F0FD1244D254A904218BFA8422AD073
:1011200002F58062904226D023F08003C762866277
:101130001C4314E04D6823F07003D1F80CC02B431E
:10114000C762866223F4407343EA0C0323F08003F2
:101150001C4312B9BEF1000F16D00B69036303687C
:10116000012243F00403036042610460F0BD23F0F8
:1011700070034A681343CA6823F44073C762134379
:10118000866223F080031C43074A084B984218BF2D
:101190009042E2D003F580639842DED0DFE700BFE3
:1011A00000000140000401400040014000440140B3
:1011B00000040040836A1A0710B406D50168846BE6
:1011C0004A6822F4004222434A60DC0706D50168DF
:1011D000C46A4A6822F4003222434A60990706D55D
:1011E0000168046B4A6822F4803222434A605A073D
:1011F00006D50168446B4A6822F4802222434A6083
:10120000DC0606D50168C46B8A6822F4805222434A
:101210008A60990606D50168046C8A6822F4005237
:1012200022438A605A060AD50168446C4A68B4F5BC
:10123000801F22F4801242EA04024A600BD01B068F
:1012400006D50268C16C536823F400230B43536036
:101250005DF8044B70474A68846C22F4C002224354
:101260004A60ECE70022836BA3F85E20704700BF62
:1012700082B00023019302E00369002B09DB019B8C
:1012800001330193019BB3F1706FF5D9032002B0D4
:1012900070478901002341F020010193016103E0BF
:1012A000036913F0200307D0019B01330193019BD5
:1012B000B3F1706FF4D9E9E7184602B0704700BF88
:1012C00082B00023019302E00369002B09DB019B3C
:1012D00001330193019BB3F1706FF5D9032002B084
:1012E000704700230193036943F00103036103E0A6
:1012F000036913F0010307D0019B01330193019BA4
:10130000B3F1706FF4D9E9E71846E8E7036942687A
:101310001F2B70B430D9A3F1200520215468A940B7
:10132000214227D08169087C022835D048681F2BCC
:10133000C9681B4D4E680169C1F30324194951F86E
:10134000244015F804C0056856F80C4024F0010448
:1013500046F80C40407901EB4001088CE96800F444
:10136000F05021EA0001E96010D9A3F12001202307
:101370008B40D36070BC7047202114689940214293
:10138000F8D08169087C0228D0D105E0202101FA3B
:1013900003F370BC9360704700200874C6E700BF79
:1013A000D8E40B08B0E30B08D0E907239A423CBF0E
:1013B000C1685218D01A7047D0E9092300699A42CF
:1013C00038BF12180138D31AC01A7047D0E9090281
:1013D000101AB0FA80F04009704700BF016A034656
:1013E00040694A1C405CD9688A4228BF00221A62C0
:1013F000704700BF436A826910B4D154436A416B9D
:10140000046901330A68A34228BF00235DF8044B36
:1014100042F0800243620A60704700BF436BD869A4
:1014200010F0100002D0102201201A62704700BF95
:10143000704700BF704700BF704700BF0120704772
:10144000014B5868704700BF80290024074B93F870
:10145000A422012A01D10020704793F8A402A0F130
:101460000300B0FA80F04009704700BF80290024D3
:10147000012380F849307047EFF31182702383F322
:1014800012880849D2B2D1E9B93182F31188581EC5
:101490008B42A0EB01008CBF0023012300EB033043
:1014A000704700BF8029002470B5D0F8D442D0F82E
:1014B000C86200EB840EDEF8C05245B301F00F04A1
:1014C0000A4604EB840C00EB8C0CDCF818306BB98A
:1014D000DEF8C43200211B69C5F8141223B105F5EA
:1014E0000471D5F808029847002070BD04EBC404CD
:1014F00006EB8406F469B3FBF4F604FB1633002B09
:10150000E6D11A46CCF818306FF0B6FAECE70320B3
:1015100070BD00BFD0F8D42200EB820210B5D2F823
:10152000C042ACB101F00F03D0F8C802D2F8C42217
:1015300004F5037103EBC303D26800EB8303D4F813
:101540000402D3F86832C4F80C329047002010BD72
:10155000032010BDD0F8D43200EB830010B5D0F8D2
:10156000C04284B1D0F8C4325BB194F80002FF28C5
:1015700007D09B68214694F801229847FF2384F8FE
:101580000032002010BD032010BD00BF30B52A4C32
:101590008646237865889D4241D9184619461A46E1
:1015A00002E0954246D921780C440A44617892B20F
:1015B0000529F6D1A1788229F3D19C461A461E4905
:1015C00003E0AA4234D291F800C06144624491F829
:1015D00001C092B2BCF1050FF3D191F802C0BCF189
:1015E000010FEED1144A02E0A8421DD213781A442A
:1015F000034492F801C098B2BCF1050FF4D193787E
:10160000812BF1D10CB11023A37119B10020022359
:1016100008714B711AB100210223117153714323D8
:101620000548AEF8003030BD0022002CEBD1ECE7CD
:101630000021D7E70024C0E70000002430B52A4C81
:101640008646237865889D4241D9184619461A4630
:1016500002E0954246D921780C440A44617892B25E
:101660000529F6D1A1788229F3D19C461A461E4954
:1016700003E0AA4234D291F800C06144624491F878
:1016800001C092B2BCF1050FF3D191F802C0BCF1D8
:10169000010FEED1144A02E0A8421DD213781A4479
:1016A000034492F801C098B2BCF1050FF4D19378CD
:1016B000812BF1D10CB11023A37119B1002040236B
:1016C00048710B711AB100214023517113714323EA
:1016D0000548AEF8003030BD0022002CEBD1ECE71D
:1016E0000021D7E70024C0E700000024A6E700BFE0
:1016F00003460A2201481A80704700BF44000024B4
:10170000122301480B807047500000240423014835
:101710000B807047640000241D48D0F80038D0F8D2
:10172000082830B59B184FF01A040C8001D11948D5
:1017300030BD184A0024D0F8040802F11005114603
:101740004FEA137EB3F1204FCC7001F102010EF18C
:10175000370C38BF0EF1300C8D424FEA031381F87D
:1017600000C0EDD102F108050024010FB0F1204FB7
:10177000D47402F1020201F1370338BF01F13003E2
:1017800095424FEA00101374EFD1024830BD00BFFC
:1017900000E0F11F6800002400207047212808B5F0
:1017A00027D0222818D0202814D199B1072A11D186
:1017B000184A194B0868B1F804C0D2F8EC228979AC
:1017C000C3F88400A3F888C083F88A1012B10146D8
:1017D00000209047002008BD0029FBD0022AF9D143
:1017E0000C4BD3F8F032002BF4D009880020984736
:1017F000F0E70029EED0072AECD1074BD3F884009C
:10180000B3F8882093F88A30086000208A808B71B2
:1018100008BD00BF8029002400000024564B002191
:10182000564AD3F88C305648A2FB032330B5DB0C64
:10183000544C83B0013BC4F80413C4F8FC1242F2C8
:101840000F7194F83123C4F8F402C4F80013C4F8FB
:10185000F832002A00F08A8002254B49484884F873
:101860003153FFF731FC0123484A0621372084F821
:101870003C3384F8323384F8333384F8343384F8D7
:10188000353384F8363384F8373384F8383384F8C2
:10189000393384F83A3384F83B3384F83133D2F85F
:1018A000E83043F02003C2F8E830D2F8E83003F023
:1018B00020030193019B6AF0DBFA354B4FF40002E1
:1018C0005A6094F83133012B3BD1D4F8F422314BD8
:1018D0003148B2F1804F18BF9A4284F83153D16831
:1018E0000CBF0123002341F00101824208BF43F0F5
:1018F000010300F58060D160824208BF43F001031C
:1019000000F580602549824208BF43F0010300F5DD
:101910007840824208BF43F001038A4208BF43F087
:10192000010313B91E4B9A4207D191681D4B0B401E
:10193000062B06D0B3F5803F03D0136843F00103B4
:101940001360D4F8DC3204EB8303D3F8C83243B11C
:1019500015480021154AC3F80802C3F81012C3F84D
:1019600004220020C4E9BB0003B030BD02F0FF0038
:1019700084F8300370E700BF0000002483DE1B43BF
:101980000014004080290024782C002400440258D0
:1019900000E100E0000001400004004000180040A9
:1019A0000040014007000100404800244038002466
:1019B0002DE9F047046982B0C3681C4046D08146D7
:1019C00088464FF0004501F1500701F13806B4FA9E
:1019D00084F325FA03F21B3BD2431440C9F81020CC
:1019E000B8F1000F5FD0042B2ED8DFE803F0524887
:1019F0003D320300D8F81030D9F82CA033B19B68E1
:101A000023B11FFA8AF108F108009847D8F8283066
:101A100033B19B6823B11FFA8AF108F1200098477F
:101A2000D8F8403033B19B6823B11FFA8AF108F12E
:101A300038009847D8F8583033B19B6823B11FFA63
:101A40008AF108F150009847002CC0D102B0BDE8DF
:101A5000F087D8F8103008F10800D9F834105B6826
:101A60009847002CB3D1F1E7D8F8283008F12000CE
:101A7000D9F838105B689847002CA8D1E6E7D8F869
:101A800040303046D9F83C105B689847002C9ED116
:101A9000DCE7D8F858303846D9F840105B689847EA
:101AA000002C94D1D2E7042B07D8DFE803F0190308
:101AB000140F0A00D9F83C300193019B002C86D109
:101AC000C4E7D9F82C300193019BF7E7D9F83430FB
:101AD0000193019BF2E7D9F838300193019BEDE7C0
:101AE000D9F840300193019BE8E700BF0A49D1F8DB
:101AF00040334A685BB1002AFCD0013A10B513F8B4
:101B0000014B4A60C1F8403312B1204610BDFEE7D8
:101B10006AF074FD204610BD80290024F8B50E4EF1
:101B200096F8A432012B00D1F8BD96F8A432032B0D
:101B3000FAD10D461446D6F8447308E005F0E2FFEA
:101B4000D6F84433241A0544DB1B322BECD8002C86
:101B500021462846F2DCF8BD80290024F8B590F82B
:101B600048305D1C0344EDB280F8485083F83410CF
:101B700090F8493053B1132D07D9002380F848302D
:101B8000104F97F8A432012B05D1F8BD80F84830EA
:101B9000002DF5D1F8BD97F8A432032BF5D1D7F875
:101BA000446300F134042946204605F0ABFFD7F822
:101BB00044332D1A04449B1B322BE6D8002DF2D15E
:101BC000F8BD00BF80290024F8B5002390F84850E4
:101BD000A0F8483005B9F8BD0D4F97F8A432012B95
:101BE000F9D097F8A432032BF5D1D7F8446300F16C
:101BF00034042946204605F085FFD7F844332D1AD2
:101C000004449B1B322BE6D8002DF2D1F8BD00BF57
:101C1000802900242DE9F041012104464FF407708A
:101C200079F08CF8054600286ED0D4F8D46204EB25
:101C30008606C6F8C002237CD4F8C872C4F8BC0279
:101C4000002B40D0022340228121384670F07EF8DC
:101C50000121022340223846218770F077F84FF0A7
:101C600001083846032308228221A4F8788170F005
:101C70006DF8294B0027E364D6F8C432C5F8047226
:101C80001B689847D5F80402C5F81472C5F8187295
:101C900000283ED0227CD4F8C83222BBC3F88C2264
:101CA0004FF400749A7903F51E71C3F88402012A77
:101CB000A3F87882C3F8884223D018686EF0CCFD70
:101CC0000020BDE8F081384602234FF400728121E4
:101CD00070F03CF8012102234FF40072384621874E
:101CE00070F034F8BBE79A79402403F51E71C3F80D
:101CF0008C72012AC3F88402A3F87882C3F8884260
:101D0000DBD1C3F89402D8E7D4F8D432B03344F826
:101D100023000220BDE8F08101001000F8B5D0F8E2
:101D2000C85240F20112044695F894342A87012BD8
:101D30003ED00126002728683246314685F8946453
:101D40006EF01AFF27873A4631462868A5F8786270
:101D500085F894646EF010FF4FF48173A4F87871E5
:101D600032460221286885F89464A5F85C306EF04C
:101D700003FF85F89474D4F8D432002504EB830370
:101D8000E564D3F8C0228AB1D3F8C4325B689847BF
:101D9000D4F8D432B03354F8230077F06BF8D4F889
:101DA000D432B03344F82350C4F8BC520020F8BDFC
:101DB00000224FF481710287A5F87832A0F87821CB
:101DC000A5F85C10D7E700BFD0F8D43200EB83034E
:101DD000F0B5002683B0D3F8C0728DF80560ADF879
:101DE00006605FB191F800C004460D461CF0600229
:101DF0002FD0202A05D020466EF0F4FC032003B03B
:101E0000F0BDCA884878002A42D01CF0800F00F04C
:101E10008380D3F8C43239469B689847EA88022306
:101E20004FF48071072AC4F8943228BF0722D4F8EF
:101E3000C832C4E906225A629A79998203F11401E0
:101E4000012A1F629E6200D11F6318686EF004FDB4
:101E500022E04B780B2BCED801A252F823F000BF22
:101E60009D1E0408991E0408F71D0408F71D0408A8
:101E7000F71D0408F71D0408F71D0408F71D0408E2
:101E8000F71D0408F71D0408DD1E0408D31E04080E
:101E9000D3F8C4329B6898470020B0E790F89C3292
:101EA000032BA8D10222D0F8C8320020C4F8942213
:101EB00003F11401C4E906220DF106049862C3E996
:101EC00008424FF480729A829A79012ABDD11C632C
:101ED000BBE790F89C32032BDED08CE790F89C3265
:101EE000032B88D101220221D0F8C832C0F8941205
:101EF00003F11401C0E906220DF10500C3E908024F
:101F00004FF4807200209A829A799862012A9CD1BB
:101F10000DF10500186398E7402A4FF0030387F896
:101F2000000228BF402287F80122C4F89432D4F876
:101F3000C832C4F85821C4F85C2103F51571C3F800
:101F400064229A79C3F86072012AC3F86862A3F820
:101F5000546208BFC3F8707277E700BF08B520B9B4
:101F6000044869F091FD044808BD044869F08CFDFF
:101F7000014808BD848E0C08C82C0024A88E0C08CB
:101F8000024808B569F080FD014808BDCC8E0C08F8
:101F9000C82C0024024808B569F076FD014808BD48
:101FA000D48E0C08C82C0024024808B569F06CFDDA
:101FB000014808BDE08E0C08C82C002470B5134DF4
:101FC000134AD5F88C30A2FB03239B09013BB3F1E4
:101FD000807F01D3012070BD4FF0E0220D49002425
:101FE0000F2853614FF0F003064681F823304FF07D
:101FF000070394611361EDD801464FF0FF3069F09B
:1020000037FF2046C5F8906070BD00BF0000002477
:10201000D34D621000ED00E0F0B50C4611460268A9
:102020008646936913F0100C72D04FF0000C102309
:1020300038486546D36193699E065FD445B9036805
:102040005B1AA3423DD893699F06F8D52023D3613C
:102050004CF0040C01209369D90552D54FF48071DE
:102060005F054CF0010CD16104D54FF480614CF058
:10207000080CD1619D0504D54FF400734CF0020C9F
:10208000D3619369990701D5002393629369DB07B4
:1020900003D4936943F001039361536820241E49DC
:1020A00001200B4000215360DEF844308EF84010D0
:1020B00043EA0C03CEF844308EF841408EF84210CB
:1020C000F0BD57689EF842309669DBB2360408D5F9
:1020D0007E0406D4202B04D0536843F4804353601D
:1020E000016893699F06A6D403685B1A192BF8D977
:1020F00093694FF0200C01259E069FD5002DA5D099
:10210000A6E75E05B1D49C05B6D40028B9D1F0BDD0
:102110006046A0E78029002400E800FE2DE9F04792
:1021200007689A46089EBB6931EA03030CBF012386
:102130000023934220D180460C461546DFF85C9080
:10214000324651464046FFF767FF20BBD9F80030C2
:10215000A3EB060CD44507D9BB6934EA03030CBFD3
:1021600001230023AB420AD0BB6934EA03030CBF4E
:1021700001230023AB42E3D00020BDE8F087D8F86C
:102180004430202288F840001343C8F8443088F8CF
:10219000412088F842000120BDE8F0878029002412
:1021A0000C4A136903F03803102B0DD0182B09D0FB
:1021B00063B913689B060BD513680748C3F3C103C3
:1021C000D8407047FEF7DABD0448704704487047AE
:1021D00001487047004402580090D00300127A0072
:1021E00000093D00194A136903F03803102B10B59C
:1021F00025D0182B09D023BB13689B0623D5136861
:102200001348C3F3C103D84001E0FEF7B7FD0F49FF
:10221000104A8B698969C3F303230F4C01F00F0146
:1022200013440A4493F8281092F8283001F01F0252
:1022300003F01F03D040C4F88C00D84010BD0748FD
:10224000E5E70748E3E70248E1E700BF004402583A
:102250000090D003B0E30B080000002400127A00C5
:1022600000093D000269836870B5044605681343A0
:10227000C069626986B029681343AB4A03430A40C8
:10228000616A1343E2682B606B6823F44053134385
:10229000A2696B60A54B9D4200F06481236AAE6821
:1022A0001A43A34B33401A43AA60EB6A23F00F038F
:1022B0000B43EB629F4B9D4228D09F4B9D421AD00F
:1022C0009E4B9D4217D09E4B9D4214D09D4B9D42EC
:1022D00011D09D4B9D4219D09C4B9D420BD09C4BE5
:1022E0009D4208D0012000234FF001126367A266CF
:1022F000A36706B070BD974B5B6D03F00703052B1A
:10230000F0D8DFE803F09E7E89915F78914B5B6D9A
:1023100003F03803282BE5D801A252F823F000BFC0
:10232000C9240408E5220408E5220408E52204087B
:10233000E5220408E5220408E5220408E522040851
:1023400003240408E5220408E5220408E522040821
:10235000E5220408E5220408E5220408E522040831
:1023600019240408E5220408E5220408E5220408EB
:10237000E5220408E5220408E5220408E522040811
:1023800029240408E5220408E5220408E5220408BB
:10239000E5220408E5220408E5220408E5220408F1
:1023A000C5230408E5220408E5220408E522040800
:1023B000E5220408E5220408E5220408E5220408D1
:1023C000F7230408B0F5004F634852D0634B6268AE
:1023D00003EB41031B8FB0FBF3F000EB52004FF611
:1023E000EF73B0FBF2F0A0F110029A423FF67AAF21
:1023F000E860002077E7B0F5004F3AD04FF4004096
:10240000E4E7B0F5004F2DD003A8FEF729FD0498AE
:102410000028EED0616AD9E7B0F5004F70D0684669
:10242000FEF7B8FD0198F3E7B0F5004F5DD0494BDA
:102430001A68920638D51B684948C3F3C103D840CF
:10244000C4E7B0F5004F31D0FFF7CCFE414A434B13
:10245000D269C2F30212134493F8283003F01F0329
:10246000D840D5E703A8FEF7FBFC04980028C0D0AD
:10247000616A3A4B626803EB41034FF6EF711B8FC1
:10248000B0FBF3F0530803EB4003B3FBF2F3A3F10B
:1024900010028A423FF626AF23F00F02C3F3420335
:1024A00092B21343EB60A4E72D488FE7FFF79AFE43
:1024B000284A2A4BD269C2F30212134493F82830F7
:1024C00003F01F03D840D1E7B0F5004F1DD0FFF750
:1024D00089FE204A214BD269C2F30222134493F8A9
:1024E000283003F01F03D84092E71A4B1A68900671
:1024F00040F1A4801B681A48C3F3C103D840B8E771
:102500006846FEF747FD0198B0E7FFF76BFE114AFA
:10251000124BD269C2F30222134493F8283003F01D
:102520001F03D840A2E700BFF369FFCF000C00589B
:10253000FFF4FF110010014000440040004800403B
:10254000004C004000500040001401400078004062
:10255000007C00400044025800093D00B0E30B0835
:102560000090D003A868364B03401343354AAB6054
:10257000EB6A23F00F030B43EB62936D03F0070349
:10258000052B3FF6AFAEDFE803F0403B3203514E80
:102590002C4B1A6895064BD42B482C4B656803EBE3
:1025A000410305EB45011A8FB0FBF2F399423FF668
:1025B00099AEB3EB053F3FF695AE0023194679F08F
:1025C00087FB2A460902030241EA106168081818CD
:1025D0004FF0000341F1000179F07AFB1C4BA0F5AC
:1025E00040729A423FF67EAE1A4BD86001E76846C9
:1025F000FEF7D0FC019800283FF4FBAE616ACCE7FF
:1026000003A8FEF72DFC0498F5E7FFF7EBFD0D4A54
:102610000E4B126AC2F30212134493F8283003F0EF
:102620001F03D840E7E74FF40040B6E70A48B4E795
:102630001B680548C3F3C103D840AEE7024818E75A
:10264000FFF4FF11004402580090D003B0E30B08E0
:10265000FFFC0F00000C005800093D00344A1368CD
:1026600030B423F08063334C1360256803E02368A3
:102670005B1B022B54D813681B01F8D4936A0568BE
:1026800023F47C3343EA053393628368C568013BD6
:10269000013D5B022D049BB205F4FE052B4345680A
:1026A000013DC5F308052B430569013D2D0605F0E5
:1026B000FE452B439363D36A456923F0C0032B4344
:1026C000D362D36A856923F020032B43D362D36A94
:1026D00023F01003D362D36BC0696FF3CF0343EAD7
:1026E000C003D363D36A43F01003D362D36AD1B17A
:1026F00001290CBF43F4801343F40013D3620C4A46
:10270000136843F080631360216803E023685B1A59
:10271000022B05D813681B01F8D5002030BC704788
:10272000032030BC704743F40023D362E7E700BFC7
:102730000044025880290024344A136830B423F03E
:102740008053334C1360256803E023685B1B022B26
:1027500054D813689B00F8D4936A056823F07C73FF
:1027600043EA055393628368C568013B013D5B0200
:102770002D049BB205F4FE052B434568013DC5F3CE
:1027800008052B430569013D2D0605F0FE452B4349
:102790001364D36A456923F440632B43D362D36A3D
:1027A000856923F400732B43D362D36A23F48073C7
:1027B000D362536CC0696FF3CF0343EAC003536421
:1027C000D36A43F48073D362D36AD1B101290CBFB9
:1027D00043F4000343F08073D3620C4A136843F060
:1027E00080531360216803E023685B1A022B05D82D
:1027F00013689B00F8D5002030BC7047032030BC24
:10280000704743F48003D362E7E700BF00440258F7
:1028100080290024026810B452E8003F23F490732A
:1028200042E800310029F7D1144C02F1080353E8C3
:10283000003F234002F1080C4CE800310029F4D19C
:10284000C36E012B08D0002320225DF8044BC0F892
:102850008C204367C366704752E8003F23F01003A3
:1028600042E800310029EED052E8003F23F0100387
:1028700042E800310029EFD1E5E700BFFEFFFFEF9E
:10288000436BDA69F0B5970683B0044642D5586ABF
:10289000E36AC0B2002B00F09580216B9847636B10
:1028A0001A681D4622F480721A609A6822F00102AA
:1028B0009A609A6942F008029A61DA69D6072DD4C3
:1028C000DA69900701D502221A62DA69510701D547
:1028D00004221A62DA69120701D508221A62DA693B
:1028E000170612D5D4F8BC20212A0ED0D4E909123B
:1028F0008A4273D0A169895C0132C9B299622169A7
:10290000B2FBF1F001FB1022A262DA69560608D48C
:1029100003B0F0BDDA691D46D607D1D501221A628F
:10292000CEE7DA6940F60F0C1E6804F1340012EAB3
:102930000C0F996836D0B24F0F4040F0BB80DFF8E3
:10294000CCC216EA0C0F40F06381D4F8A050012DE0
:102950004CD0D50202D54F0200F16781150606D58D
:1029600001F4000106F080050D4340F0438151065B
:10297000CED57206CCD553E8002F22F0400243E8B2
:10298000002141B1626B52E8003F23F0400342E86E
:1029900000310029F7D120220023C4F8BC20C4F85C
:1029A000AC30B5E79506D0D506F0200501F080578C
:1029B0003D43CAD0D4F8A830002BA9D003B0BDE85D
:1029C000F0401847E3696269D054E369E268013373
:1029D000B3FBF2F102FB1133E36160E70022A4F8DC
:1029E0008A201A6822F080021A608EE7D706B0D5D6
:1029F000F506AED51022B4F890501A629A685706C0
:102A000040F11D81D4F8B40001684A6892B2002AEE
:102A100000F05081AA4280F04D81C169A4F8922053
:102A2000B1F5807F40D053E8002F22F4807243E854
:102A3000002141B1626B52E8001F21F4807142E82D
:102A40000015002DF7D103F1080252E8002F22F003
:102A5000010203F1080545E800210029F3D103F143
:102A6000080252E8002F22F0400203F1080545E871
:102A700000210029F3D12022C4F8C020C4F8A010FE
:102A800053E8002F22F0100243E80026002EF7D171
:102A90005C490D6840B190F83530022B00F013818D
:102AA000802380F8346043650223C4F8A430B4F86E
:102AB00092302DE712F0010F0CD016F4807F09D070
:102AC0004FF0010CC3F820C0D4F8C4C04CF0010C86
:102AD000C4F8C4C012F0020F7BD112F0040F0CD066
:102AE00011F0010F09D04FF0040CC3F820C0D4F846
:102AF000C4C04CF0020CC4F8C4C012F0080F0CD0D3
:102B000006F0200C5CEA070C07D008271F62D4F8F7
:102B1000C47047F00807C4F8C47017050AD57701D8
:102B200008D54FF400671F62D4F8C43043F0200387
:102B3000C4F8C430D4F8C430002B3FF4E9AE920698
:102B40000CD506F0200601F080510E4306D0D4F8D3
:102B5000A8301BB101909847656B0198D4F8C42048
:102B6000AB6802F0280203F04003134361D0FFF783
:102B700051FEAB685B067FF5CBAE05F1080353E869
:102B8000003F23F0400305F1080141E8003262B143
:102B9000626B02F1080353E8003F23F0400302F1A7
:102BA000080040E800310029F3D1D4F8B40000282F
:102BB0003FF4AEAE90F83520134B022A03653BD1AB
:102BC000FDF71EFA00283FF4A3AED4F8B400036D5D
:102BD000F4E611F0010F90D04FF0020C12F0040F48
:102BE000C3F820C0D4F8C4C04CF0040CC4F8C4C06E
:102BF00083D078E7D4F8AC30002B7FF4DFAE87E6E3
:102C0000010000108029002465120408200100043E
:102C100012F0010F3FF471AF16F4807F7FF450AFD4
:102C200012F0020F7FF469AF57E74FF480121A6277
:102C30006EE6C4F8C4306BE680224265BEE6B4F8A6
:102C40009220B4F8921092B289B2AA423FF460AED8
:102C500000293FF45DAE53E8002F22F4907243E860
:102C6000002141B1626B52E8001F21F4907142E8EB
:102C700000100028F7D1954803F1080252E8002F10
:102C8000024003F1080545E800210029F4D1202283
:102C9000C4F8A810C4F8C020C4F8A01053E8002F4E
:102CA00022F0100243E800210029F7D10223C4F8E2
:102CB000A4302DE6AA427FF42BAEC369B3F5807F22
:102CC0007FF426AEF2E70368814A824E824FB34218
:102CD00018BF934206F118060CBF01220022B3422E
:102CE00008BF42F001021836B34208BF42F00102A9
:102CF0001836B34208BF42F001021836B34208BF8B
:102D000042F0010206F55676B34208BF42F00102D6
:102D10001836B34208BF42F001021836B34208BF6A
:102D200042F001021836B34208BF42F001021836E1
:102D3000B34208BF42F001021836B34208BF42F066
:102D400001021836B34208BF42F00102A6F59266AE
:102D5000BB4218BFB34207F592670CBF012600269D
:102D6000BB4208BF42F0010256EA020779D0D3F80D
:102D700000C02CF01E0CC3F800C0D3F814C02CF017
:102D8000800CC3F814C0D0F860C076BBD0F860C027
:102D9000DCF8006026F48076CCF800601A6822F037
:102DA00001021A6003E00A68521B052A24D81A6837
:102DB000D607F8D4D0E9165101F01F012FB33F23F5
:102DC0008B40AB60C36ED0E91921516033B11A68F2
:102DD000016F22F480721A60436F4B60012200235E
:102DE00080F8352080F834305EE6DCF8002022F4EC
:102DF0008072CCF80020D1E7202103220023416516
:102E000080F8343080F835204EE6344A344EB342F0
:102E100018BF934206F114060CBF01220022B342F0
:102E200008BF42F001021436B34208BF42F001026B
:102E30001436B34208BF42F001021436B34208BF51
:102E400042F00102012606FA01F1696025498B4230
:102E500008BF42F00102002AB4D1234A9342B1D004
:102E6000BCE71E4EDFF878C0634518BFB3420CF1D3
:102E7000140C0CBF01260026634508BF46F001066E
:102E80000CF1140C634508BF46F001060CF1140C5C
:102E9000634508BF46F001060CF1140C634508BFFA
:102EA00046F00106D3F800C02CF00E0CC3F800C0A9
:102EB000DFF830C0634508BF46F00106002E7FF4FE
:102EC00065AF094EB3423FF461AF67E7FEFFFFEF26
:102ED00040000240580002402800024008540258B6
:102EE0001C54025880540258945402582DE9F84357
:102EF000056807460C46C5F31009B9F1000F39D132
:102F00008A4B4FF6FF72B3F88030934256D0002BB5
:102F100054D0874A02EA432808F10068454534BF87
:102F20004FF001084FF00208824B9D4206D903F58D
:102F300000339D4200F2CF804FF001097E4E96F89B
:102F40005C34012B12D00123B8F1010F86F85C34F8
:102F50004FF00003C6F8603436D0022068F034FF2A
:102F6000002800F09980002386F85C344FF0FF3091
:102F7000BDE8F883704E96F85C34012B4CD00123E9
:102F800086F85C3405F17843B3F5801F48D3A5F18A
:102F90000163B3F5801F3FD200230220C6F86034DE
:102FA00068F012FF002870D1644A4FF00208D2F88E
:102FB0000C3143EA0803C2F80C313FE0B5F1016F70
:102FC00067D305200BF0B8FA404668F0FDFE0028F4
:102FD000C9D14046DFF86481D8F80C3023F4E663A9
:102FE000C8F80C30D8F80C3043EA092343F0A403A6
:102FF000C8F80C3068F0E8FED8F80C20504B1340AD
:10300000C8F80C300028AED105F178430122B3F5A1
:10301000801F86F85C2403D36FF00100BDE8F883BD
:1030200000230120C6F8603468F0CEFE68BB434A36
:103030004FF00108D36843F00203D360BFF36F8FF2
:10304000BFF34F8F04F1200254F8043B944245F83B
:10305000043BF9D1BFF36F8FBFF34F8F404668F049
:10306000B3FEB8F1010F354A30D0D2F80C3123F05D
:103070000203C2F80C31002386F85C340028CBD15F
:103080003B6820333B60BDE8F883002386F85C345E
:10309000C2E74FF0010847E7DFF8A0800220D8F828
:1030A0000C3123F4E663C8F80C31D8F80C3143EA4C
:1030B000092343F0A403C8F80C3168F085FED8F862
:1030C0000C211F4B1340C8F80C319BE7D36823F049
:1030D0000203D360CFE703F500339D4211D903F516
:1030E00000339D4210D903F500339D4206D903F504
:1030F00000339D420BD84FF005091FE74FF004093C
:103100001CE74FF0020919E74FF0030916E703F532
:1031100000339D4206D9B5F1016FBFF452AF4FF0B5
:1031200007090BE74FF0060908E700BF00E8F11FA9
:1031300000FE1F00FFFF010880290024002000522C
:10314000FBF8FFFF0148FDF757B900BFE82D002449
:10315000084810B4D0F86834D0F89C4499691A68CB
:103160002CB1234600F58D605DF8044B18475DF8DF
:10317000044B7047802900240148FDF73DB900BF8A
:10318000402E0024084810B4D0F8C034D0F8F444DD
:1031900099691A682CB1234600F598605DF8044BD4
:1031A00018475DF8044B7047802900240148FDF75B
:1031B00023B900BF982E0024084810B4D0F8183561
:1031C000D0F84C4599691A682CB1234600F5A360E4
:1031D0005DF8044B18475DF8044B704780290024C4
:1031E0002DE9F04FDFF8649300EB400583B0430016
:1031F00009EB85050093D5F894300193002B00F07E
:1032000062818046B5F89A0068F06CFC95F89800E9
:1032100008F054FB044695F8990008F04FFB08F1BC
:1032200001030746DBB2002C00F0728140F60C125D
:10323000A1882372E2802268002800F05D81037279
:1032400040F60C23C38091613B68BA889A611121D2
:103250002046092604F0D4FC1121384604F0D0FCA5
:103260006525002C00F032812268A38811690B4289
:1032700000F02C811B0493610BF002F905468B468C
:103280000BF0FEF8401B61EB0B01052871F100010A
:10329000F6D314B12368A2889A610BF0F1F80546C1
:1032A0008B460BF0EDF8401B61EB0B01052871F12B
:1032B0000001F6D3013ED3D11CB1A38822681B04C0
:1032C00093610BF0DDF805460E460BF0D9F8401B74
:1032D00061EB0601052871F10001F6D31FB1BB882F
:1032E0003A681B0493610BF0CBF805460E460BF0D1
:1032F000C7F8401B61EB0601052871F10001F6D308
:1033000014B12368A2889A610BF0BAF805460E46FC
:103310000BF0B6F8401B61EB0601052871F10001C6
:10332000F6D317B13B68BA889A61009B20463E21CC
:10333000434409EB830393F89F40224608F09CFA2C
:10334000224638463E2108F097FA7A4C5823019AD3
:1033500003FB0843C3F86824774B9A4200F0C78008
:10336000FEF740FF754BDA69C2F30212744B134447
:1033700093F8283003F01F03D840009B434409EB27
:10338000830393F89C30022B00F0BD80032B00F0E8
:10339000B580012B14BF4FF4C8714FF4487168F029
:1033A000F1FB03465822002102FB0842C2F87014C8
:1033B000C2F87814C2F87C14C2F88414C2F88814D5
:1033C0000121C2F86C34C2F8741492F8A91401F007
:1033D000FF00002900F0A480582123F07062242609
:1033E0004FF4004701FB08415648D1F8683481F892
:1033F000A9641D6825F001051D601A619A6822F410
:1034000000429A609F605A6822F400625A605A68CB
:103410001043D1F8802458601202D86820F400408C
:10342000D860DA6000221A60186840F00100186065
:103430002020C1F8AC2481F8A904C1F8982481F8AF
:10344000AA2491F8A9042028C5B217D191F8A8049C
:10345000012813D081F8A964186820F001001860D1
:10346000186820F48050186018681860186840F0D8
:103470000100186081F8A95481F8A824009B02215A
:103480000126314F434409EB830999F89E502846A1
:1034900068F0EEFC05F01F036A0999F89D5006FAE2
:1034A00003F30221284647F8223068F0E1FC582354
:1034B00003FB084405F01F036D0906FA03F347F800
:1034C000253084F8646403B0BDE8F08F013D2AD054
:1034D0000AF0D6FF83468A460AF0D2FFB0EB0B0013
:1034E00061EB0A01052871F10001F5D3B9E6FEF799
:1034F00079FE124B1A6A37E79161A8E6C82168F095
:1035000041FB03464EE7642168F03CFB034649E774
:1035100000283FF49CAE037240F60C23C38093E670
:1035200082F8A80458E7002C3FF4A6AEA3882268CE
:10353000A0E600BF80290024001C00580044025867
:10354000B0E30B080080000200E100E0000000246E
:103550002DE9F04F441C85B017469DF83C202DD036
:103560005824DFF8A8831E46054600FB04F408EB48
:10357000040393F86494B9F1000F1FD04444490048
:10358000FF2F04F58D64039100D0EEB9002A40F0BE
:10359000C680582303FB058393F8A924202A04D16D
:1035A000B6B94FF40072C3F8AC24B8F86C352846AD
:1035B00001339BB2A8F86C35FFF712FE4FF00009FB
:1035C000484605B0BDE8F08F93F8A934202BECD124
:1035D0004FF0580A0AFB058A9AF8A834012BE4D068
:1035E0000122D8F800B019234FF400418AF8A8242A
:1035F0002046CDF800B0FEF791FD0028D5D10E9BF6
:10360000DAF86814CAF88C342123BA4A8AF8A93443
:103610004023CAF89C048AF8AA34CAF8AC042046AD
:10362000AAF892644B681340039A1343B24A1A43B0
:103630004A60594668F09AFB0246002840F0FB8039
:10364000DAF86834802120469F620A23CDF800B062
:10365000FEF764FD002840F0EE80BAF892349BB289
:10366000FF2B40F21681DAF86814FF23A348AAF86A
:1036700090344B68A24A0340039803431A434A60BC
:103680005826DDF80CA05F46039506FB058605E08D
:10369000B6F892349BB2002B00F0108139462046D8
:1036A00068F064FB002840F0F280D6F88C14D6F85D
:1036B000685411F8012BB6F89034AA62C6F88C143D
:1036C000013BB6F892149BB20139A6F8903489B246
:1036D000A6F89214B6F8921489B2002BD8D100291A
:1036E000D6D002460A23802120460097FEF716FD19
:1036F000FF22002840F0CB80B6F892349BB2934270
:1037000040F2A080D6F86814A6F890244B687B4A53
:1037100013407B4A43EA0A031A434A60B8E74FF072
:10372000580A0AFB058A9AF8A934202B7FF43DAF8A
:103730009AF8A834012B3FF438AF0122D8F8007072
:1037400019234FF400418AF8A82420460097FEF779
:10375000E5FC00287FF429AF0E9BCAF89C04CAF848
:103760008C3421238AF8A93410238AF8AA34CAF8A1
:10377000AC04AAF89264BAF892349BB2FF2B00F220
:10378000C780BAF892349BB2AAF89034002B40F06C
:10379000F180DAF8681457484B685A4A0340039896
:1037A00003431A434A605826AA4606FB0586B6F824
:1037B000923439469BB2002B00F0D480204668F04A
:1037C000D5FA002878D1D6F88C14D6F8685411F8B8
:1037D000012BB6F89034AA62C6F88C14013BB6F8F7
:1037E00092149BB20139A6F8903489B2A6F89214CB
:1037F000B6F8921489B2002BD9D10029D7D002464D
:103800000A23802120460097FEF788FCFF2200282B
:1038100052D1B6F892349BB2934225D9D6F86814A7
:10382000A6F890244B68354A1340039A1343344A50
:103830001A434A60BBE75823002203FB058383F841
:10384000A824B2E6B6F89234D6F868249BB22B4886
:103850005168A6F89034DBB201404AEA03430B43B7
:1038600043F00073536013E7B6F89234D6F8681447
:103870009BB2039A2148A6F89034DBB242EA034394
:103880004A680240134343F000734B608FE7039D87
:103890008BE6BAF89234DAF868149BB2039A1748A8
:1038A000AAF89034DBB242EA03434A680240134369
:1038B00043F000734B60E3E6554676E63946204612
:1038C000039D68F025FA00287FF46FAED6F86834BF
:1038D00020210D4CD9615A6822405A605823002299
:1038E00086F8A91403FB058386F8AA0483F8A824A4
:1038F00066E600BF009800FC00200101009C00FC6F
:103900000000FF010020000200E800FE80290024E2
:10391000FF234FF47F00FE224FF08076AAF8903408
:10392000039BDDF838E01E4358231EF801AB03FB70
:103930000583DFF850C0D3F86814C1F828A0A3F8B5
:103940009024B3F89224C3F88CE4013A92B2A3F81D
:1039500092244B6803EA0C033343034343F40053BC
:103960004B6020E72046554668F0D2F900287FF4E6
:103970001CAEABE7013B4FF000769AB2501CC0B2D0
:103980000004CDE7009800FC2DE9F04F441C85B001
:1039900099469DF83C3000F096805825C34C064669
:1039A00000FB05F504EB050B9BF864A4BAF1000FCE
:1039B00000F089802544FF2A90464FEA410705F52B
:1039C0008D6540F08680002B00F083809BF8A93441
:1039D000202B6FD19BF8A834012B6BD00122D4F897
:1039E000008019234FF400418BF8A8242846CDF815
:1039F0000080FEF793FB00285CD10E9BCBF89C0463
:103A0000CBF88C3422238BF8A93410238BF8AA34FA
:103A1000CBF8AC04ABF89294BBF892349BB2FF2B7A
:103A200000F21081BBF89234DBF868149BB2A04816
:103A30004A68ABF89034DBB2024047EA03431343D1
:103A40009C4A1A434A604FF0580909FB0649B9F8E5
:103A500092349BB2002B00F08481D9F868349A69C3
:103A6000520700F1318142460A212846FEF7D4FA76
:103A7000002840F0F480D9F868349A69910640F142
:103A8000F9809A699A6912F0100200F0F180102210
:103A90002021894DDA610422C9F8AC24D9615A6821
:103AA0002A405A6089F8A91489F8A80489F8AA0458
:103AB00022689B69B4F86C35304601339BB2A4F898
:103AC0006C35FFF78DFB4FF0000A504605B0BDE89E
:103AD000F08F4FF0580B0BFB064B9BF8A934202BB3
:103AE000E8D10E9B002B00F0A8809BF8A834012B96
:103AF000E0D0236801224FF4004128468BF8A82427
:103B0000039300931923FEF709FB0028D2D1222347
:103B1000DBF868140E9A8BF8A9344023CBF88C2478
:103B20008BF8AA34CBF8AC04ABF89294DFF8809110
:103B30004A68CBF89C04284602EA09023A4342F458
:103B400090324A60039968F011F90246002840F06B
:103B50003481402328461946DBF86834C3F82880AE
:103B6000039B00930A23FEF7D9FA002840F0258131
:103B7000BBF892349BB2FF2B40F22681DBF868142D
:103B8000FF234E4AABF890344B6803EA09033B43EA
:103B90001A434A604FF05808B946039F08FB06488D
:103BA00005E0B8F892349BB2002B00F01F810A2385
:103BB0000022042128460097FEF7B0FA00287FF47F
:103BC00079AFD8F86834596AD8F88C341970B8F8D5
:103BD0009214D8F88C340139013389B2C8F88C3486
:103BE000B8F89034A8F89214013BB8F892149BB23C
:103BF00089B2A8F890340029D3D0002BD1D1024645
:103C00000A23802128460097FEF788FAFF22002821
:103C10007FF450AFB8F892349BB2934240F2BB802D
:103C2000D8F86814A8F890244B68254A1340254A10
:103C300043EA09031A434A60B3E74FF40073CBF831
:103C4000AC3437E7DBF86814FF231948ABF890343D
:103C50004B681A4A03403B431A434A60F3E6582331
:103C600003FB0643D3F868349A6922689B6921E70D
:103C7000C9F8AC242268A2EB08020A2A7FF6EFAE4C
:103C80009A6912F004027FF4EAAE582101FB064162
:103C9000D1F8AC0481F8A824202240F02000C1F81B
:103CA000AC0481F8A9249B6904E700BF80290024A3
:103CB000009800FC0024000200E800FE0024FF0140
:103CC000009C00FC0000FF015A6AD9F88C341A707D
:103CD000B9F89234D9F88C24013B01329BB2C9F86F
:103CE0008C24A9F89234B9F89034B9F89224013BA5
:103CF00092B29BB2A9F89034002A3FF4A8AE002BF0
:103D00007FF4A5AE0A23002280212846CDF800804A
:103D1000FEF704FA00287FF4CDAEB9F892349BB2D6
:103D2000FF2B0CD9D9F86814FF233B48A9F890342D
:103D30004B683A4A03403B431A434A6087E6B9F866
:103D40009234D9F868149BB233484A68A9F8903481
:103D5000DBB2024047EA0343134343F000734B6076
:103D600075E64146284667F0D3FF00287FF4A2AEEF
:103D7000D9F8683420212A4DD9615A682A405A60FE
:103D800089F8A91489F8AA045822002302FB0644E2
:103D900084F8A83499E6B8F89234D8F868249BB22D
:103DA0001D485168A8F89034DBB2014049EA03434A
:103DB0000B4343F000735360F3E65823002203FBE8
:103DC000064383F8A82475E6BBF89234DBF8681440
:103DD0009BB24A68ABF89034DBB202EA090247EAC8
:103DE000034313430F4A1A434A60D3E60399284614
:103DF00067F08EFF034600287FF45CAED8F8682495
:103E00002020074DD06151682940516088F8A904ED
:103E100088F8AA34B8E700BF009C00FC0000FF014E
:103E200000E800FE002400020348D0F8C4300BB1C3
:103E3000B8301847704700BF000000240348D0F88E
:103E4000E4300BB1D8301847704700BF00000024A1
:103E50000348D0F804310BB1F8301847704700BF61
:103E6000000000240348D0F8243113B100F58C7011
:103E700018477047000000240348D0F8443113B1BC
:103E800000F59C7018477047000000240348D0F8E4
:103E9000643113B100F5AC7018477047000000247E
:103EA0000348D0F8843113B100F5BC70184770474F
:103EB000000000240348D0F8A43113B100F5CC7001
:103EC00018477047000000240348D0F8C43113B1EC
:103ED00000F5DC7018477047000000240348D0F854
:103EE000E43113B100F5EC7018477047000000246E
:103EF0000348D0F8043213B100F5FC70184770473E
:103F0000000000240348D0F8243213B100F50670F5
:103F100018477047000000240348D0F8443213B11A
:103F200000F50E7018477047000000240348D0F8D1
:103F3000643213B100F51670184770470000002472
:103F40000348D0F8843213B100F51E70184770474B
:103F5000000000240348D0F8A43213B100F5267005
:103F6000184770470000002410B41C46436884467C
:103F70006FF30F0323434360036843F001030360BF
:103F8000036843F400730360002C3AD040F2E93038
:103F9000DCF814309B0748D5002A49D012F8013BC1
:103FA00040F2E9308CF82030DCF81430DB0720D404
:103FB0000138F9D1214B9C450CD0A3F578439C45A1
:103FC00038D003F580639C4536D003F578439C4593
:103FD0000BD103201A4A00EB400002EBC002B2F8FA
:103FE000CC3201339BB2A2F8CC3200205DF8044BF6
:103FF00070479CF83000C0B209B101F8010B013CD8
:10400000C4D1DCF814301B07FBD5DCF818300120D4
:104010005DF8044B43F01003CCF81830DCF80030A6
:1040200023F00103CCF8003070470138B0D1C1E76C
:10403000FF23B5E70120CDE70220CBE700300140A8
:10404000000000242DE9F84300242C4E804603682C
:1040500056F83450AB4209D001340E2CF8D1284A1E
:104060000021052004F0C4FB002019E0254B03EBE0
:104070008409D9F87075AFB198F8051000204B1C71
:1040800001EB410203EB430307EBC202DB00C2F882
:104090000C80C2E90400F854182303FB01700830B7
:1040A000BDE8F8830721682004F024FC0146C9F824
:1040B0007005F0B13946682274F0CAFDD9F8701560
:1040C00006EBC4043B4689600C600962896309659C
:1040D00056F83320954205D001330E2BF8D14F60AE
:1040E0000F46C9E7084F4C2202FB03774F600F468B
:1040F000C2E7064A052004F07BFBB5E700E40B08A5
:10410000F08E0C0880290024282F0024188F0C081A
:1041100030B40C4C0022234603E0013214330B2A46
:104120000CD093F804C08445F7D1DD68294201D151
:104130000029F2D1142303FB024000E0002030BC30
:10414000704700BF18030024F0B54468A37913F04A
:1041500002025FD002224FF0080C036864795B68AA
:104160009B48204493F83C40012C90F8C00050D06C
:10417000012483F83C40142848D8DFE810F01500EB
:1041800047004700470084004700470047003B01C5
:10419000470047004700BB00470047004700F200C8
:1041A0004700470047004D0018688A4C056A8A4E50
:1041B00025F00205B04242EA0502056A25F0010534
:1041C00005624768856904EA050444F0600407D085
:1041D000824DA84204D005F57055A84240F04D81AB
:1041E00022F0080247F440774CEA020222F004026F
:1041F0004760846141630262826942F00802826121
:10420000826922F00402826182698261002283F85D
:104210003C20F0BD9446A0E718686F4E046AB04297
:1042200024F4001444EA0252046A24F48014046260
:104230006B4C4568476D04EA070444F4C0440ED053
:1042400006F58066B0420AD0664F06F58046B04259
:1042500018BFB84203D006F58066B04201D145F4DC
:10426000802545604465C1650262426D42F400628A
:104270004265426D22F480624265426D42650022D1
:1042800083F83C20C5E71868574C056A524E25F064
:104290002005B04245EA0215026A22F010020262CD
:1042A0004768826904EA020444F4C04400F0DE80F6
:1042B0004A4A904200F0DA804A4E4C4A904218BF77
:1042C000B04203D002F58062904201D147F44067CA
:1042D0004760846181630562826942F400628261A1
:1042E000826922F48062826182698261002283F89D
:1042F0003C208EE71868384E046AB04224F400541B
:1043000044EA0232046A24F480540462364C45685C
:10431000C76904EA070444F4C0440ED006F5806679
:10432000B0420AD02F4F06F58046B04218BFB842BF
:1043300003D006F58066B04201D145F48045456062
:10434000C46101640262C26942F40062C261C2696E
:1043500022F48062C261C269C261002283F83C20FB
:1043600057E718681C4E046AB04224F4003444EA4B
:104370000242046A24F4803404621D4C4568476D8F
:1043800004EA070444F060040ED006F58066B042EB
:104390000AD0144F06F58046B04218BFB84203D089
:1043A00006F58066B04201D145F48035456044652C
:1043B00081650262426D42F008024265426D22F060
:1043C00004024265426D4265002283F83C2020E7EA
:1043D000B0E30B088CFFFEFF000001400004014029
:1043E000FF8FFFFE00400140FF8CFFFE00440140B4
:1043F0008FFFFEFF1868264C056A264E25F4007EC6
:10440000B0424EEA0225026A22F4807202624768D4
:10441000C26904EA020444F0600420D01E4A9042BB
:104420001DD01E4E1E4A904218BFB04203D002F566
:104430008062904201D147F440574760C461C16334
:104440000562C26942F00802C261C26922F0040238
:10445000C261C269C261002283F83C20D9E625F41A
:10446000006E4EEA0C2E2EF48065E4E725F0800500
:1044700045EA0C1525F0400528E705F58065A842BA
:104480003FF4AEAE05F58065A8427FF4B1AEA7E675
:104490008CFFFEFF0000014000040140004001408D
:1044A0000044014042685379032B0FD8DFE803F042
:1044B0000B08050210684030704710683C307047A8
:1044C00010683830704710683430704700207047EB
:1044D000D0E90002064B517992790B44406893F879
:1044E000C010530701D56CF049BC6CF0C3BC00BFD1
:1044F000B0E30B08F0B54468374A2469C368C4F3D5
:1045000003245B6852F82460EFF31184102585F3CF
:1045100012884568314F95F805E0D0F80CC002EBE1
:104520004E02D5F800E0158CDEF80C2005F4F055AD
:1045300022EA0502CEF80C2017F806E0DCF810207D
:1045400053F80E501F2A25F0010543F80E5039D9B3
:10455000203A2025DCF804C005FA02F2CCF80C2041
:10456000E2B282F31188BA5DDFF874C003EB020E89
:1045700046684569DEF8044004EA0C0C4CEA010187
:10458000CEF804107179032924D8DFE801F018155A
:10459000120231684031CEF80C500124CEF80810D8
:1045A000995841F010019950995821439950047439
:1045B000F0BD31683C31EEE731683831EBE7316806
:1045C0003431E8E72025DCF804C005FA02F2CCF823
:1045D0000820C5E70021DEE7B0E30B08D8E40B08AC
:1045E0000000FFFF03681A7E012A2ED0002293F8F4
:1045F0003010012909D093F8481001290ED093F802
:10460000601001291BD02ABB7047022142F480624E
:1046100083F8301093F84810012904D1022142F4A4
:10462000006283F8481093F86010012907D01B68D6
:1046300000211B685962D9680A43DA607047022179
:1046400042F4805283F86010F1E702214FF40072C7
:104650001976CCE74FF40072E9E700BF08B5204BAC
:1046600098420ED003F5806398420AD01D4A03F5A4
:104670008043984218BF904203D003F5806398426C
:104680001BD1FDF7AFFD1849184BCA69C969C2F3C0
:104690000222C1F302211A4492F8282002F01F02DC
:1046A000D040114A1269C2F3C03241EAC202134437
:1046B00093F8C43003FB00F008BDFDF793FD0A49F1
:1046C0000A4BCA69C969C2F3021CC1F3021103EBA8
:1046D0000C0292F8282002F01F02D040E1E700BF50
:1046E000000001400040014000440258B0E30B08C4
:1046F00070B50E4605EE102AD0E90031013E1A6869
:104700000868B6B25C681568FFF7A8FF07EE900A64
:10471000B8EE455A9FED5D7AF8EE677A87EE850A26
:1047200030EE070A6EF0F8FE23680138AB4280B223
:1047300068D0C4E9005000238022E660A360A26133
:10474000C4E9043394F83D3003F0FF02002B78D025
:104750000223211D284684F83D30FCF7B5FC4C4A65
:104760000123B5F1804FA5EB020284F84830B2FA7C
:1047700082F284F83E3084F83F304FEA521284F8D7
:10478000403084F8413084F8423084F8433084F873
:10479000443084F8453084F8463084F8473084F853
:1047A0003D3034D09ABB3B4B9D420CD003F5806327
:1047B0009D4208D003F580639D4245D003F57843C0
:1047C0009D4241D070BD94F83C30012BFAD00222BA
:1047D000314B012184F83D20A8680340AB6084F888
:1047E0003D1084F83D206B68A96823F0700321F028
:1047F000800101226B600023A96084F83D2084F8C9
:104800003C3070BD636883423AD0606093E794F8AF
:104810003C30012BD6D002211F4B002084F83D10E4
:10482000A9680B400121AB6084F83D10022384F895
:104830003D306B68A9680AB90028D6D023F470030C
:10484000D3E784F83C2083E794F83C30012BB9D0BF
:104850000221114B114884F83D10A968281A0B4019
:10486000B0FA80F00121AB600023400984F83D10CC
:1048700084F83C300A4B9D42D8D00028D6D170BD78
:10488000E368B3427FF457AF70BD00BF0AD7233C43
:1048900000000140000400408800CEFF00040140F9
:1048A000000C0040024B0348D3F87015FDF780B8A8
:1048B0008029002400000140034B4FF08040D3F8D2
:1048C0007415FDF775B800BF80290024024B03481A
:1048D000D3F87815FDF76CB8802900240004004057
:1048E000024B0348D3F87C15FDF762B880290024F9
:1048F00000080040024B0348D3F88015FDF758B874
:1049000080290024000C0040024B0348D3F88C158A
:10491000FDF74EB88029002400040140024B0348F3
:10492000D3F89C15FDF744B88029002400180040F6
:10493000024B0348D3F8A815FDF73AB880290024A4
:1049400000400140024B0348D3F8AC15FDF730B8E6
:104950008029002400440140024B0348D3F8B015DD
:10496000FDF726B8802900240048014010B5064C08
:104970000648D4F88C15FDF71BF8D4F8A0150448A8
:10498000BDE81040FDF714B8802900240004014060
:10499000001C004010B5064C0648D4F88C15FDF7F5
:1049A00007F8D4F8A4150448BDE81040FDF700B896
:1049B000802900240004014000200040BFF34F8FF5
:1049C0000549064BCA6802F4E0621343CB60BFF3AB
:1049D0004F8F00BFFDE700BF00ED00E00400FA05C7
:1049E0000021012008B508F063F872B6FFF7E6FF72
:1049F0002DE9F043BFB0BFF35F8F9C4C0023626A88
:104A000022F480326262C4F894309DF843109DF81D
:104A1000445009069DF842200F9841EA057141EA89
:104A2000C2419DF8452041EA82419DF8462041EA75
:104A300042419DF8472041EA02419DF8412041EA68
:104A400002219DF8402041EA4201C4F89830013328
:104A5000D4F8A020112B22F00102C4F8A020C4F841
:104A60009C00C4F8A010F0D10523C4F89430636A08
:104A700043F480336362BFF34F8FBFF36F8F7C4883
:104A80007C4A7D49121A72F0C3FCD4F888107B4B23
:104A90000022012041F47001C4F8881018601A61E6
:104AA000196841F08001196019680143196019689B
:104AB00041F480311960196841F4805119609A619C
:104AC000DA611A629A62DA621A635A639A63DA6383
:104AD0001A645A64196821F4802119601A664FF02B
:104AE00000636749C1F80801A3606DF0BDFA654A2B
:104AF000D36813F0040FD36840F0A380624B002109
:104B0000604A0591D96A21F00101D962DB6A03F09C
:104B100001030593936943F440439361936903F45C
:104B200040430593059B93699804FCD54C220021D2
:104B30000EA8564C74F08CF8554A42F20303A4F1C7
:104B400010011268B3EB124F4FF000024FF0040354
:104B500008BF0C460892E268A370002A4CD1494A6B
:104B6000494B916941F440419161926902F440429C
:104B70000892DA6A42F00102DA62DB6A03F00103AA
:104B80000893089B3F4A93699904FCD53B4B4FF42B
:104B9000403540480321D3F8E02042F08002C3F8BA
:104BA000E0200122D3F8E03003F080030793079B55
:104BB00085610D9BCDE9001300236DF003F90223FD
:104BC00001204FF48031A288CDE9173304231993D3
:104BD000A379CDE90E01E079217A1C900EA81D91F0
:104BE000CDE91A2308220023CDE91E23FBF704FE9A
:104BF000032838D0A0B1FEE7234BD96A21F0010188
:104C0000D962DB6A1F4903F0010308938B6923F41F
:104C1000404313438B618B6903F440430893B0E72F
:104C20001D4B1A6812F00E0F3AD11A6822F00F02CB
:104C300042F002021A601B6803F00F03022B2FD010
:104C4000FEE723F00703154C43F00203D36021680D
:104C500005E023685B1AB3F57A7F3FF64FAF5368E0
:104C60009D04F6D54AE7FFF7BBFE00BF00ED00E06C
:104C700000000000C0300000C0010D0800440258D0
:104C80000080005100480258000400580404002429
:104C90000010005C001C02580020005280290024F3
:104CA0006D4A936903F070033F2B05D8936923F095
:104CB000700343F040039361674AD36903F07003C4
:104CC0003F2B05D8D36923F0700343F04003D36131
:104CD000614AD36903F4E063B3F5806F05D2D36909
:104CE00023F4E06343F48063D3615B4A136A03F007
:104CF00070033F2B05D8136A23F0700343F0400381
:104D00001362554B9A69120705D49A6922F00F0273
:104D100042F008029A61504A936923F470639361E8
:104D200013689B018CD5136941F288314B4C23F0F9
:104D3000070343F003031361206804E023681B1A90
:104D40008B4200F29181136903F03803182BF5D1DF
:104D5000936903F00F03082B05D9936923F00F0320
:104D600043F0080393613E4A136803F00F03022BDC
:104D70000BD9136823F00F0343F002031360136889
:104D800003F00F03022B00D05AE7334A936903F074
:104D90007003402B05D9936923F0700343F040035F
:104DA00093612D4AD36903F07003402B05D9D36971
:104DB00023F0700343F04003D361274AD36903F41F
:104DC000E063B3F5806F05D9D36923F4E06343F45E
:104DD0008063D361204A136A03F07003402B00F212
:104DE0003B811D4EFDF7DCF91E4DB269B369C2F37C
:104DF00003221D4B134493F8283003F01F0320FABD
:104E000003F3D5F89000C5F88C30FDF7D7F80028EB
:104E100040F02B811023159017900EA80E93FBF7EE
:104E2000EBFC002840F017813368104A43F0800300
:104E30003360D6F8F43043F00203C6F8F430D6F805
:104E4000F43003F002030493049B136A43F001035C
:104E50001362074B216810E00044025880290024A7
:104E60000020005200000024B0E30B0800040058AA
:104E700080380100013B3FF4F6AE22689142F9D040
:104E8000226823689B1A0A2BFBD900214FF480204B
:104E9000994C4FF44013002600273093CDE90E01C2
:104EA0000EA86CF0D3F8D4F8EC30944941F2030228
:104EB00043F002030EA8C4F8EC30D4F8EC3003F051
:104EC00002030393039BD4F8943043F00203C4F825
:104ED0009430D4F8943023F00203C4F894300B6873
:104EE0008749B2EB134F874B874A28BF0A465A605F
:104EF0001A6822F47C5242F400521A601A6842F096
:104F000060021A6003220023CDE92C67CDE90E234D
:104F10006CF09CF84FF4E04200230EA8CDE9266720
:104F200000270326CDE90E233A976CF08FF818225C
:104F300000230EA82F973497CDE90E236CF086F846
:104F4000D4F8E0304FF48071704843F00103C4F8A6
:104F5000E030D4F8E03003F0010309933B46099AAE
:104F60000222CDE900676CF02DFF23694FF4007138
:104F7000674823F0FE7343F088732361D4F8E03070
:104F800043F00403C4F8E0303B46D4F8E02002F0DC
:104F900004020692069A0222CDE900676CF012FF25
:104FA000236923F07E4343F0FC432361FDF7F8F8C7
:104FB000C5F88C00BFF35F8F564C3E46564D4FF000
:104FC0000108636A23F480336362C4F8947027E0B5
:104FD000002A48D02F686B7A103515F8061C1B067E
:104FE00043EA017343EA420315F8052C43EA82437E
:104FF00015F8042C43EA424315F8032CC4F89860D2
:1050000043EA0243D4F8A02043F0010322F0010256
:10501000C4F8A020C4F89C70C4F8A03036BB0126A8
:105020006B682A7A002BD3D02F68002AD3D127F0BF
:105030001F02A3EB0209B9F1200F38BF4FF020097E
:10504000484672F01FFD421E08FA02F1894508BF6A
:105050000246D2B2BFE7FEE7136A23F0700343F0C3
:1050600040031362BDE6FEE7EAE5E9E50523C4F87F
:105070009430636A43F480336362BFF34F8FBFF3AE
:105080006F8FBFF34F8FBFF36F8F0022C4F8502292
:10509000BFF34F8FBFF36F8F636943F400336361D6
:1050A000BFF34F8FBFF36F8FC4F88420BFF34F8FD0
:1050B000D4F8805043F6E0761649C5F34E34C5F374
:1050C000C905640104EA06002B4640EA8372013BED
:1050D000C1F86022F9D2203C14F1200FF2D1BFF3C5
:1050E0004F8F4B6943F480334B61BFF34F8FBFF356
:1050F0006F8F3FB0BDE8F083004402580010005CA1
:105100007FBB2200008400407FBB22300000025899
:105110000008025800ED00E0140400243F4B586DD5
:10512000012830B585B06FD03D494FF6FF043D48AA
:10513000CA683D4B22403D4C3D4D1043D4F88C2075
:10514000C860586FC5F8D009D3F8F40040F00200E9
:10515000C3F8F400D3F8F40000F0020003900398C1
:10516000D3F8DC0040F00050C3F8DC00D3F8DC00DA
:1051700000F0005002900298D3F8DC0040F080402C
:10518000C3F8DC00D3F8DC0000F080400190019807
:10519000D3F8DC0040F00040C3F8DC00D3F8DC308A
:1051A000244803F000430093009BD1F8FC40224BBD
:1051B00044F08074C1F8FC40A3FB024300249B0C24
:1051C000C5F8D4391D4BC0F8B03F1D4B4460A3FB5C
:1051D000022302689B0942F00102013B0260B3F125
:1051E000807F07D34FF0E022136943F0040313617B
:1051F00005B030BD4FF0E022F0205361072381F865
:10520000230094611361EDE7002107F051FC0D4B81
:105210001A6882F308885B689847FEE700400058E8
:1052200000ED00E00003FA050044025800000024ED
:1052300080290024001000E083DE1B4355CEACC55E
:10524000D34D62100098F01F2DE9F843374E984671
:1052500006EB8003D3F8D440002C65D004F1D203D0
:10526000F4360546B4F8D202A36104F5E97366602A
:105270001746E3614FF48073261DE160C4E90433EF
:105280002368C4F8CC30A36300284AD194F8D10035
:1052900006F014FB18F0080F94F8D09034D1BA0738
:1052A00023D4FB0711D4052194F8D60266F0E0FD63
:1052B00094F8D63201221E4903F01F005B09824098
:1052C00041F823203046BDE8F8830135484606F012
:1052D000F5FAEDB218B140F206630572C38094F896
:1052E000D422022106F0C8FADDE76B1CDBB218B14C
:1052F000037240F20653C38094F8D522022106F0CF
:10530000BBFAFB07CFD5E0E70135EDB218B140F2AB
:1053100006730572C38094F8D522022106F0ACFA18
:10532000C1E766F0DFFBB1E72646CBE7B0E30B0849
:1053300000E100E00148FDF7A3BA00BF38040024F3
:105340000148FDF79DBA00BF100700240148FDF792
:1053500097BA00BFE80900240148FDF791BA00BFE1
:10536000C00C00240148FDF78BBA00BF980F002441
:105370000148FDF785BA00BF701200240148FDF70F
:105380007FBA00BF4815002470B52422456B002366
:105390008168C0F8BC2004462A6800F1340622F077
:1053A00001022A602B606B60AB608279C0F8C43068
:1053B00080F8B830C0F8BC30C364C0F8C030436572
:1053C000C0F8A030C0F8A4309302816303F4805386
:1053D0004179C363130303F400530364130203F41A
:1053E00080634364C36D01F00200C90745D40028FF
:1053F0007ED1A06412F0080254D0D4F8BC20002A58
:1054000000F08A802422C4F8BC202A6822F001021D
:105410002A60002B7CD13046FCF724FF012812D0F3
:105420006B68304623F490436B60AB6823F0220333
:10543000AB60AB6843F00803AB602B6843F001033B
:105440002B606BF03BFC6279D6070DD5D4F8C830E1
:10545000196841F480711960996841F001019960FF
:10546000196841F020011960950705D5D4F8C820C6
:10547000136843F08003136070BD0421A16470B30E
:105480000C21D007A164B5D54FF4803143F002035D
:10549000616643F001034FF40031E365216612F0C9
:1054A0000802AAD1D4F8BC1009B194F8B82084F845
:1054B000B8202422C4F8BC202A6822F001022A6005
:1054C00013BB3046FCF7CEFE0128BCD06B683046DB
:1054D00023F490436B60AB6823F02A03ACE7D10759
:1054E00088D543F002034FF48031E365616681E7BC
:1054F0000821A164D1077FF57DAF43F001034FF48C
:105500000031E3652166CAE73046FBF753FED8E772
:105510003046FBF74FFE7EE784F8B82072E700BF05
:10552000816031E741712FE781712DE72DE9F04F5F
:105530001C2087B006F0C2F90446112102F060FB7E
:10554000204604F0C9F9C82008F0C8FF002C00F07C
:10555000288123681B20A2889A6106F0AFF920B148
:1055600040F20F120023C280037240F20F22002388
:10557000E2802372BE4C0122BE4B002684F8A42296
:105580000922C4F8BC324FF0022384F8DC2904F16C
:105590000802B94DC4F8DE3904F6D813C4F8B82EA1
:1055A00094F86D2EC4F8D032C4F8C06202F0FF0344
:1055B000C4F8CC62C4F8D8622672C4F8D859A4F8EA
:1055C000E669C4F8E269002A00F0BA80032384F88F
:1055D0006D3EAB6823F00103AB6094F8E13994F8B9
:1055E000E529012B94F8E81940F09B80AB6B012969
:1055F00023F48033AB63A14BEA6803EA0203EB6058
:10560000EB6823F44013EB6000F081812846FBF740
:1056100057FE012E5FD000286ED0022384F86D3E25
:1056200080210023964A6962ADF80A306B6A43F420
:105630008003AB626B6AA96A03EB114302F5E86170
:10564000D2F86C2743F40003C5F80431C4F8C01243
:1056500022B10DF10A009047C4F8D802D4F8E01244
:10566000D4F8D0220131D4F8DC328648C4F8E012F4
:1056700004EB830392F89414C3F8CC020129136855
:1056800016D0D96849061ED4996803F5006041F028
:1056900001019960D3F8001E21F00301C3F8001E38
:1056A0000021D3F8043823F00203436082F89414F5
