:020000040800F2
:10000000F8FF012009470A08A5470A0835710508C5
:10001000A5470A08A5470A08A5470A0800000000E6
:10002000000000000000000000000000A5470A08D2
:10003000A5470A0800000000A5470A082D68040823
:10004000A5470A08A5470A08A5470A08A5470A08B8
:10005000A5470A08A5470A086D3304089533040824
:10006000BD330408E53304080D340408BD03000063
:10007000D1030000E5030000F90300000D040000B7
:100080002104000035040000A5470A08A5470A0816
:10009000A5470A08A5470A08A5470A0835340408F1
:1000A000A5470A08554A0408A5470A08454A04080E
:1000B000654A0408754A0408854A0408352104087D
:1000C00029210408692104085D210408A5470A08BC
:1000D000A5470A08613D0000B13E00001D40000038
:1000E00075340408A5470A0800000000414B0408C5
:1000F000194B0408514B0408094B0408490400003B
:10010000A5470A08A5470A08954A0408A5470A080A
:100110008D410000FD420000A54A0408BD80090889
:100120005D040000710400008504000099040000D3
:10013000AD040000A5470A08A5470A08A5470A0814
:1001400000000000000000000000000000000000AF
:10015000C1040000D5040000E90400006D44000063
:100160009D21040891210408A5470A08A5470A080B
:10017000A5470A08A5470A08A5470A080000000085
:10018000A5470A08A5470A08DD4500004D470000BD
:10019000A5470A08A5470A08A5470A08A5470A0867
:1001A000A5470A08A5470A08A5470A08A5470A0857
:1001B000A5470A08A5470A08A5470A08D121040847
:1001C000C5210408A5470A08A5470A08A5470A0843
:1001D000A5470A08FD760908A5470A08A5470A08A1
:1001E000A5470A08A5470A08A5470A08A5470A0817
:1001F000A5470A08A5470A08A5470A08A5470A0807
:10020000A5470A08A5470A08A5470A08A5470A08F6
:10021000614B0408714B0408814B0408A5470A0888
:10022000A5470A08A5470A08A5470A0800000000D4
:10023000A5470A08A5470A0800000000A5470A08C4
:10024000A5470A08A5470A08A5470A08A5470A08B6
:10025000A5470A08A5470A08A5470A08A5470A08A6
:10026000A5470A08A5470A08A5470A08A5470A0896
:10027000A5470A08A5470A08BD480000000000007D
:10028000A5470A0800000000A5470A080000000072
:0802900000000000A5470A0868
:020000040804EE
:10000000114A037A0168D35C10B4CC58CA1824F0A2
:100010000104CC501368DB07FCD4037D1F2B09D9E6
:10002000203B20225DF8044B02FA03F343F018034F
:10003000CB60704720225DF8044B02FA03F343F0D3
:1000400018038B60704700BFC8090B084368426DF6
:1000500030B49A61EFF31182502383F31288416820
:10006000D2B2856C0B68046D23EA050323430B6051
:1000700082F31188436981681A68096822F00102D5
:10008000D0E908541A60826A1D605C615A60D0E948
:100090000B429C60DA600023B0F86C2030BCCA626E
:1000A00003777047002A4FEA014C034630B508BF7A
:1000B000E64600F1C00514BF8E468C460024196840
:1000C0000C3353F8042C43F8084C41EA0C0142EA83
:1000D0000E02AB4243F80C1C43F8042CEFD1D0F8CD
:1000E000C03043EA0E03C0E93144C0F8C03030BD2F
:1000F00010B40C4C6368002B11DD002004F1080CD7
:100100000146DCF8AC3003F1C00259600C33934275
:10011000FBD1013063680CF5867C8342F1DC5DF82D
:10012000044B704704000020F0B5404C04EB401332
:1001300093F8543403B9F0BD3D4B42011D7893F858
:1001400001C065450CD00CEB4C0E03EBCE0E9EF8B7
:1001500004604FEA4C0E771E012F5AD9032E52D05D
:100160002244A2F83814EFF31181902383F312880C
:1001700092F83A34C9B2B2F8380443EA4003002096
:100180009BB282F83A0481F311881909207881EA38
:1001900013215940D8B1C9431B01D2F8505401244E
:1001A000D2F83C049BB201F00F01D5F8AC2084409A
:1001B0000B4302F1C000590013F4004F8BB202D17F
:1001C0005168214351600C329042F4D1F0BDD2F815
:1001D0003C041B01D2F8502401F00F0110309BB2F7
:1001E0000124D2F8AC200B43844002F1C000590036
:1001F00013F4004F8BB202D15168214351600C328D
:100200009042F4D1F0BD0CF1010606F00306AE42B7
:10021000A6D0E64403EBCE030344597C00299FD0CB
:10022000A318012083F83A049AE700BF04000020D5
:10023000D81C0024704700BF024B03EB401393F817
:100240005504704704000020D0E90920131A5842D1
:100250005841704790F8573830B53BB990F8551869
:10026000012490F85638DAB2914200D830BD04FA31
:1002700003F2B0F85E5801332A43A0F85E28F2E793
:100280000379024613F0010006D0D2E90731D268A3
:100290005B1A013A03EA0200704710B5037904467D
:1002A00013F001030ED0FFF7EBFF034650B1226AB3
:1002B0006369E1689B5C0132B2FBF1F0DBB201FBE8
:1002C00010222262184610BD03799B070AD5436AA3
:1002D0008269D154436A02690133B3FBF2F102FB34
:1002E00011334362704770470171704703790146CB
:1002F00013F0020007D00B69D1E90921013B521A22
:100300001A40D2B2981A70470C4B4FF0E02C10B440
:100310005A6EDCF81800596E8A42F9D1996E8842FB
:10032000F6D8DC6E4FF47A7101FB04F31B1AB3FBB1
:10033000F4F35DF8044B01FB02307047D81C002435
:100340002DE9F04F4C484FF0010A4C494FF002099B
:100350004B4B4FF0040808271026202540244FF06F
:10036000800EDFF820C130F8022F12F0010F03D009
:100370001960083323F804AC12F0020F03D019609F
:10038000083323F8049C12F0040F03D019600833DB
:1003900023F8048C12F0080F03D01960083323F8F7
:1003A000047C12F0100F03D01960083323F8046C9A
:1003B00012F0200F03D01960083323F8045C12F008
:1003C000400F03D01960083323F8044C12F0800F5B
:1003D00003D01960083323F804EC12F4807F05D0B1
:1003E0004FF4807B1960083323F804BC12F4007FBB
:1003F00005D04FF4007B1960083323F804BC12F4D5
:10040000806F05D04FF4806B1960083323F804BC6B
:1004100012F4006F05D04FF4006B1960083323F815
:1004200004BC12F4805F05D04FF4805B1960083380
:1004300023F804BC12F4005F05D04FF4005B196090
:10044000083323F804BC12F4804F05D04FF4804BDE
:100450001960083323F804BCD20B05D04FF40042D6
:100460001960083323F8042C01F5806161457FF49D
:100470007AAFBDE8F08F00BFEE740A0800000258A2
:10048000481D00240024025810B584464FEA810E0E
:10049000102312F4004F4FEA420214BF0E24072427
:1004A000013B92B2CCF80040F444F2D100EB81124F
:1004B0008C010351122042F8213010BD10B5844642
:1004C0004FEA810E0424130B013C4FEA021203EBA6
:1004D000430392B203F11803CCF80030F444F2D194
:1004E00000EB01130A018450062043F8214010BD9F
:1004F000704700BF704700BF00EB4000024B03EBAA
:10050000C00393F84905704704000020064B93F898
:10051000F825824206D900EB400003EBC003D3F874
:100520004C05704700207047040000201D4B93F8D5
:10053000FC25AAB3D3F8381509B100200860012AB8
:100540002ED0D3F8501509B100200860022A27D018
:10055000D3F8681509B100200860032A20D0D3F829
:10056000801509B100200860042A19D0D3F8981525
:1005700009B100200860052A12D0D3F8B01509B1DE
:1005800000200860062A0BD0D3F8C81509B1002056
:100590000860072A04D0D3F8E0350BB100221A60B6
:1005A000704700BF040000201D4B93F8FC25AAB340
:1005B000D3F8381509B100200860012A2ED0D3F8ED
:1005C000501509B100200860022A27D0D3F8681519
:1005D00009B100200860032A20D0D3F8801509B1A2
:1005E00000200860042A19D0D3F8981509B100201A
:1005F0000860052A12D0D3F8B01509B100200860B0
:10060000062A0BD0D3F8C81509B100200860072AC4
:1006100004D0D3F8E0350BB100221A60704700BF58
:1006200004000020C44B1B78002B40F04F81C34BCB
:1006300093F8FC25002A00F0498193F8481530B55D
:1006400000294ED1D3F838150020012A086047D977
:1006500093F86015002966D1D3F850150020022ABE
:1006600008603DD993F87815002940F0CB80D3F885
:1006700068150020032A086032D993F890150029E4
:1006800040F0E280D3F880150020042A086027D9C2
:1006900093F8A815002940F0F880D3F898150020A9
:1006A000052A08601CD993F8C015002940F00F8175
:1006B000D3F8B0150020062A086011D993F8D81590
:1006C000002959D1D3F8C8150020072A086007D996
:1006D00093F8F025002A73D1D3F8E03500221A6090
:1006E00030BDD3F83C25910AA1F58011522940F282
:1006F0000F814FF0FE0CEFF31181502080F3128830
:100700008F4C4FF02C0E556AC9B250690EFB0C4C41
:10071000013540F00100CCF81855506181F3118883
:1007200093F8FC258EE7D3F85425910AA1F58011A2
:10073000522940F2F2804FF0FE0CEFF3118150206D
:1007400080F312884FF02C0E556A7D4CC9B2506967
:1007500001350EFB0C4440F00100C4F818555061FF
:1007600081F3118893F8FC250020D3F85015022A54
:1007700008603FF677AFB3E7D3F8CC25910AA1F52F
:100780008011522900F2EA806E48014491F814C0A9
:10079000EFF31181502080F312884FF02C0E556A30
:1007A000674CC9B2506901350EFB0C4440F00100A2
:1007B000C4F81855506181F3118893F8FC2581E73E
:1007C000D3F8E425910AA1F58011522900F2C980DD
:1007D0005C48014491F814C0EFF31181502080F37C
:1007E00012884FF02C0E556A554CC9B2506901352C
:1007F0000EFB0C4440F00100C4F81855506181F321
:10080000118869E7D3F86C25910AA1F58011522966
:1008100040F288804FF0FE0EEFF31181502080F3FC
:1008200012884FF02C0C556A454CC9B250690135FD
:100830000CFB0E4440F00100C4F81855506181F3E0
:10084000118893F8FC2512E7D3F88425910AA1F5C5
:10085000801152296BD94FF0FE0CEFF3118150201B
:1008600080F312884FF02C0E556A354CC9B250698E
:1008700001350EFB0C4440F00100C4F818555061DE
:1008800081F3118893F8FC25FCE6D3F89C25910AA6
:10089000A1F58011522957D94FF0FE0CEFF31181C9
:1008A000502080F312884FF02C0E556A244CC9B2A8
:1008B000506901350EFB0C4440F00100C4F8185596
:1008C000506181F3118893F8FC25E6E67047D3F870
:1008D000B425910AA1F5801152293AD94FF0FE0CA6
:1008E000EFF31181502080F312884FF02C0E556ADF
:1008F000134CC9B2506901350EFB0C4440F00100A5
:10090000C4F81855506181F3118893F8FC25CFE69F
:100910000C48014491F814C0EDE60A48014491F8EE
:1009200014C00AE70748014491F814E074E7054849
:10093000014491F814C090E7000000240400002056
:10094000D81C0024F0740A080748014491F814C028
:10095000A4E70548014491F814C0C1E74FF0FE0C2C
:1009600016E74FF0FE0C37E7F0740A0800EE100AA5
:10097000B8EE400A704700BFBCEEC00A10EE103A55
:1009800098B2704707280AD84FF4B472054B02FB9F
:100990000033B3F80006B0FA80F040097047002039
:1009A000704700BF04000020072807D8044B4FF40D
:1009B000B471012201FB003383F80226704700BFA7
:1009C00004000020072808D8044B03EB401393F8D9
:1009D000542412B1012283F83A2470470400002005
:1009E000072808D8054B03EB4013B3F83804B0FAD6
:1009F00080F0400970470020704700BF04000020CD
:100A0000054B93F8F825824204D903EB4013D3F841
:100A1000440470470020704704000020436A0246E7
:100A20001B681B6A5B689B7813F0010008BF507756
:100A3000704700BFC2628161704700BF0346012258
:100A400000205A77704700BF826908B50346006BE3
:100A5000D96A02449A6101B18847002008BD00BFED
:100A6000704700BF043070470C4B93F88827D3F8C9
:100A7000841702440144D2B2C3F8841783F888274C
:100A800093F88827120605D593F8882782F080020C
:100A900083F88827024B01225A707047D81C002423
:100AA000000000242DE9F84F164FD7F88C57ED0AB7
:100AB00023D00026DFF850A007F5F269B04674197C
:100AC000D7F890174FF01003524648BF0134D1F8C1
:100AD00028B04846C7F8BC876410E102D8470F2801
:100AE0000BDD094B03F1100153F8042B013207D140
:100AF0008B42F9D12546B542E1DCE802BDE8F88F2A
:100B0000661CF8E7D81C0024A0F20024184B596E8C
:100B1000D3F8C4278A1A322A04D8D3F8D8278A42AD
:100B200011D37047D3F8C81749B193F8D4278888F0
:100B300002F001020968120100FA02F28A61002241
:100B4000C3F8D8277047D3F8C8276AB11068323184
:100B5000928810B44469C3F8D81722425DF8044B58
:100B600018BF1204826170473231C3F8D81770473A
:100B7000D81C0024074AD2F8C8374BB192F8D427C2
:100B80009988186802F001031B0101FA03F38361DD
:100B900000207047D81C0024044B4FF4007C002038
:100BA000D3F8E837A2F800C00B607047D81C0024C7
:100BB00000207047012070470120704700207047D7
:100BC00010B41C6994420CD394460A4661448C428A
:100BD000996938BFA4EB0C0261445DF8044B66F0E0
:100BE000B3B85DF8044B70472DE9F0414FF425721E
:100BF0008EB00021744866F005F9744B744D4FF0C7
:100C00000008D3F8F02040F27D27A5F1680605F62C
:100C1000F41442F00102C3F8F020D3F8F02002F0FF
:100C200001020092009AD3F8E82042F00102C3F8D2
:100C3000E820D3F8E82002F001020192019AD3F8EB
:100C4000E82042F00202C3F8E820D3F8E82002F0DE
:100C500002020292029AD3F8E82042F00402C3F89A
:100C6000E820D3F8E82002F004020392039AD3F8B4
:100C7000E82042F00802C3F8E820D3F8E82002F0A8
:100C800008020492049AD3F8E82042F01002C3F854
:100C9000E820D3F8E82002F010020592059AD3F874
:100CA000E82042F02002C3F8E820D3F8E82002F060
:100CB00020020692069AD3F8F02042F00202C3F80E
:100CC000F020D3F8F02002F002020792079AD3F83E
:100CD000E82042F04002C3F8E820D3F8E82002F010
:100CE00040020892089AD3F8E82042F08002C3F844
:100CF000E820D3F8E82002F080020992099AD3F89C
:100D0000E82042F48072C3F8E820D3F8E82002F427
:100D100080720A920A9AD3F8F02042F48032C3F823
:100D2000F020D3F8F02002F480320B920B9AD3F823
:100D3000F02042F40032C3F8F020D3F8F02002F49F
:100D400000320C920C9AD3F8F02042F48022C3F8BF
:100D5000F020D3F8F03003F480230D930D9B55F869
:100D60002810002302E00133112B29D054F833203E
:100D70009142F8D106EBC303B3F8600A08F1070803
:100D80005CF078FAB845EAD14FF0000840F27D27D0
:100D900055F82810002302E00133112B12D054F82B
:100DA00033209142F8D106EBC303B3F8600A08F18F
:100DB00007085CF05FFAB845EAD10EB0BDE8F081F3
:100DC0000020DBE70020F2E7C8210024004402589D
:100DD00058750A0810B5044664F07EFF01462046A7
:100DE00089B2BDE81040FFF79FB900BF38B50B4D81
:100DF00000EB400005F5A763C40003EBC0032544E6
:100E000093ED027AD3ED037AE7EE007AB0EE670A4B
:100E100064F062FFD5F83835186038BD0400002052
:100E200002692DE9F843C36812EA030828D0054691
:100E30000E464FF00047B8FA88F327FA03F21B3B3F
:100E4000D24308EA02082A61042B16D8DFE803F02F
:100E50003B30251A0300B36A002B3FD003F1FF3962
:100E600000231FFA89F9B362746A34B123682046FB
:100E7000494698476468002CF8D1B8F1000FDAD1E0
:100E8000BDE8F88370680028F7D0696B036889B201
:100E90009847B8F1000FCED1F2E7B0680028ECD047
:100EA000A96B036889B29847B8F1000FC3D1E7E78F
:100EB000F0680028E1D0E96B036889B29847B8F17F
:100EC000000FB8D1DCE730690028D6D0296C036860
:100ED00089B29847B8F1000FADD1D1E7EB6A1FFA9C
:100EE00083F9C1E72DE9F043134C83B0DFF84C9050
:100EF000DFF84C8004F5906602E00834B44218D064
:100F0000A579002DF9D12768083407EB08039B0A5F
:100F100009EB4303B3F8E40A5CF0ACF934F8041CC1
:100F200001232A463846CDE9005560F097FEB442C9
:100F3000E6D103B0BDE8F083481D0024F0740A0830
:100F40000000FEA78069B43054F032BAF8B5A0F5BD
:100F500007642379DB0725D5657994F8543805F0C3
:100F600001073D46FBB1D4F848341A68D36A5B08E0
:100F7000536294F8583823B1B4F862380133A4F8B6
:100F8000623885F00101606C5BF0F4F8012384F8AD
:100F90005738002384F8553884F85638A4F85E385A
:100FA00084F85438F8BD94F85768012E03D194F8AA
:100FB000553884F856382046FFF74CF94EB90123CE
:100FC00085EA030184F85738606CBDE8F8405BF0AF
:100FD000D1B80023394684F85738F5E738B5A0F57D
:100FE00007640022344D606C03685A62A1F1290342
:100FF000302B31D895F8B73895F8B8180133DBB2F3
:10100000012B85F8B73809D9B4F85E3885F8B728C8
:101010005B08A4F85E384B1C85F8B83895F8B828FA
:101020000023082AA4F8603815D185F8B838B5F837
:10103000BA3801339BB2032BA5F8BA3808D9237903
:10104000DB0705D5E36A94F85E0843B3216B984744
:101050000023A4F85E3838BD5B396C290CD8B4F88D
:101060005E3885F8B7285B0843F08003A4F85E3843
:1010700095F8B8380133CFE794F85938002BCDD123
:10108000012185F8B738A5F8BA38802384F85918B3
:10109000A4F85E3885F8B8185BF06CF8BEE7E36931
:1010A0006269D054E369E2680133B3FBF2F102FBF9
:1010B0001133E361CCE700BFD81C002470B50546AE
:1010C0000A26084C013E00D170BD94F9000019F0C9
:1010D000CFFF031E04DB6178EA185172A278EA544C
:1010E0000434EFE7E67F0A0838B555F04DFC0D49AA
:1010F0000D4CD1F8FC20A4FB00400C4D42F0807256
:101100000B4B800CC1F8FC204FF060420949E866A7
:10111000C2F8B01F00225A601A6842F001021A6039
:1011200038BD00BF00ED00E083DE1B43D81C002467
:10113000001000E055CEACC51B481C4AC1681C4BD2
:1011400010B44FF6FF0485B021401A4C0A43C26028
:10115000D3F8D010D3F8DC20C4F8BC1842F0005209
:10116000C3F8DC20D3F8DC2002F000520192019A8F
:10117000D3F8DC2042F08042C3F8DC20D3F8DC2036
:1011800002F080420292029AD3F8DC2042F0004240
:10119000C3F8DC20D3F8DC3003F000430393039B57
:1011A00005B05DF8044B9FE700ED00E00005FA058F
:1011B00000440258D81C00242DE9F04FAC4C83B0F9
:1011C000AC4D81464F1E10265AF008FB4FF4FA78BA
:1011D0004FF0E0214FF47A7C4FF0010E6B68C3F3BF
:1011E0000803002B40F06681EFF31183002B40F0E1
:1011F0006181636E8869626E9342FAD1A26E9042F9
:10120000F7D8E26E0CFB02FAAAEB000ABAFBF2FA7C
:101210000CFB03AA6B68C3F30803002B40F02C817E
:10122000EFF31183002B40F02781636E8869626EB3
:101230009342FAD1A26E9042F7D8D4F86CB00CFB6E
:101240000BF2121AB2FBFBF20CFB0323A3EB0A0313
:10125000B3F57A7FDED3B8F10108BFD1D4F8CC174B
:1012600094F8D4E7D4F8C82751B18EF00203B1F84E
:1012700004C00868C3F340031B010CFA03F3836145
:1012800032B10EF0010390881B01984013689861F9
:1012900048464FF0010C4FF0E02351B1D1F800E087
:1012A0008988DEF8148011EA080F18BF0904CEF807
:1012B000181042B111689288D1F814E012EA0E0FAA
:1012C00018BF12048A61B4F8C428002A40F06C8167
:1012D00094F8CC18D4F8C828002940F05E812AB1CF
:1012E0009188D2F800E00904CEF81810FA21BA4625
:1012F0004FF47A7E01900F466A68C2F30802002A12
:1013000040F01181EFF31182002A40F00C81626EEF
:101310009869616E8A42FAD1A16E8842F7D8E16E6F
:101320000EFB01FBABEB0008BB46B8FBF1F80EFB74
:1013300002886A68C2F30802002A40F0E180EFF3F5
:101340001182002A40F0DC80616E9F69626E9142DA
:10135000FAD1A26E9742F7D8E06E0EFB00F2D21BD4
:10136000B2FBF0F20EFB0122A2EB0802B2F57A7F8B
:10137000DFD35F46013FBFD1D4F8CC275746019851
:1013800042B111689288D1F814E012EA0E0F18BF2A
:1013900012048A61D4F8C82742B111689288D1F842
:1013A00014E012EA0E0F18BF12048A61B4F8C428C0
:1013B000002A40F0128194F8CC18D4F8C8280029EB
:1013C00040F0038122B1D2F800E09188CEF81810E5
:1013D000FA21BA464FF47A7E01900F466A68C2F34A
:1013E0000802002A40F0BC80EFF31182002A40F08E
:1013F000B780626E9869616E8A42FAD1A16E8842A6
:10140000F7D8E16E0EFB01FBABEB0008BB46B8FB67
:10141000F1F80EFB02886A68C2F30802002A5CD168
:10142000EFF31182002A58D1616E9F69626E91427A
:10143000FAD1A26E9742F7D8E06E0EFB00F2D21BF3
:10144000B2FBF0F20EFB0122A2EB0802B2F57A7FAA
:10145000E1D35F46013FC1D1019857460138C0B280
:10146000FF2800F0C680D4F8CC17D4F8C82714E7BA
:10147000D81C002400ED00E0EFF3118386F31288FE
:10148000D1F818B00A69D00303D5C4F8C0E8D1F880
:1014900018B0606EDBB2D4F8C02883F31188024420
:1014A000E06E0CFB00F3A3EB0B03B3FBF0F30CFBC0
:1014B0000233CBE6EFF3118286F3128888690B6959
:1014C000DB0302D5C4F8C0E88869636ED2B2D4F8F1
:1014D000C0A882F31188534493E6EFF3118286F398
:1014E00012889F691969C90302D5C4F8C0C89F69E9
:1014F000606ED2B2D4F8C01882F3118801449BE721
:10150000EFF3118286F312889F691969C90302D526
:10151000C4F8C0C89F69606ED2B2D4F8C01882F314
:101520001188014418E7EFF3118186F31288986956
:101530001A69D20302D5C4F8C0C89869626EC9B2EC
:10154000D4F8C08881F31188E16E4244BB460EFB9B
:1015500001F8A8EB0008B8FBF1F80EFB0288E8E6FA
:10156000EFF3118186F3128898691A69D20302D5C4
:10157000C4F8C0C89869626EC9B2D4F8C08881F353
:101580001188E16E4244BB460EFB01F8A8EB00084F
:10159000B8FBF1F80EFB02883DE7002A3FF4A6AE47
:1015A000D2F800E091889FE6D4F8E428002A3FF4BE
:1015B0009DAEB4F8E8E84B49D4F8D028B1FBFEF171
:1015C0004910116084F8E1C890E6002A3FF400AFAA
:1015D0009188D2F800E00904F8E6D4F8E428002A5B
:1015E0003FF4F6AE0021D4F8D028116084F8E11859
:1015F000EEE64FF47A7E4FF0E0214FF00108F4461A
:101600006B68C3F30803002B58D1EFF31183002B51
:1016100054D1636E8869626E9342FAD1A26E904291
:10162000F7D8E26E0CFB02FAAAEB000ABAFBF2FA58
:101630000CFB03AA6B68C3F308030BBBEFF3118326
:10164000F3B9636E8869626E9342FAD1A26E9042DA
:10165000F7D8D4F86CB00CFB0BF2121AB2FBFBF209
:101660000CFB0323A3EB0A03B3F57A7FE2D3BEF1AD
:10167000010EC5D1013FBFF4A7AD03B0BDE8F08FA7
:10168000EFF3118386F31288D1F818B00A69D203F8
:1016900003D5C4F8C088D1F818B0606EDBB2D4F8B6
:1016A000C02883F311880244E06E0CFB00F3A3EB27
:1016B0000B03B3FBF0F30CFB0233D3E7EFF3118220
:1016C00086F3128888690B69DB0302D5C4F8C088E9
:1016D0008869636ED2B2D4F8C0A882F311885344EB
:1016E0009FE700BF40420F0010B590F82830044635
:1016F000012B03D000230120637710BD406A0368EB
:101700001A7B42B95DF02AF800F00103C243637707
:1017100002F00100F1E71B6A002BF3D0002010BD9E
:1017200038B5114D044694F82830012B05D000231C
:10173000637700230120236238BD606A03681A7B47
:101740006AB95DF00BF800F001036377C307F0D5C9
:101750006B6E226A9B1A002BE5DB002038BD1B6AEA
:10176000002BEED0F4E700BFD81C002410B5FF22F8
:10177000044690F82810406A62F08AF90E4B204621
:101780005B6E03F5FA732362FFF7CAFF94F8283003
:10179000012B00D010BD0022A021606A62F02EF95A
:1017A00094F82830012BF5D1606A1822B021BDE8E9
:1017B000104062F023B900BFD81C002438B504469D
:1017C0000D46FFF7ADFF062294F82810606A62F01C
:1017D0005FF9012294F828306277934204D0064BD7
:1017E0005B6E0F33236238BDE288D821606AB5FB97
:1017F000F2F262F029F9F2E7D81C00242DE9F8434F
:10180000838853B304460025DFF85480012707E09E
:10181000D8F864300135A2880F33AA4223621CD95C
:101820002046268AB4F80690FFF77AFF062294F83D
:101830002810606A62F02CF994F828306777012B41
:10184000E6D109FB06F6E288D821606A05FB06F6B8
:10185000B6FBF2F262F0F8F8DAE7BDE8F88300BF11
:10186000D81C002470B5104D95F8EA3803B970BD46
:10187000C3880446D5F8EC68B6FBF3F60B4B5E6004
:10188000FFF74EFF94F82830012B06D06B6E002234
:10189000023385F8EA28236270BD32461021606A5F
:1018A00062F0D2F8F2E700BFD81C00240000002448
:1018B0002DE9F04F594F90461E46C38897F8EA2805
:1018C00099B004460D46B1FBF3FA002A40D1DFF887
:1018D0005891D9F80430534522D1E188B5FBF1F392
:1018E00001FB135594F82830491BB14234BF1FFA4D
:1018F00081F91FFA86F9012B4CD07B6E204602330A
:101900002362FFF70DFF38B194F82830012B34D053
:10191000484619B0BDE8F08F002019B0BDE8F08F3F
:101920002046FFF7FDFE0028F6D04FF0FF33C9F840
:10193000043094F82830012B6AD07B6E20460233A5
:101940002362FFF7EDFE0028E6D0C9F804A0C4E743
:10195000D7F8EC28DFF8D090B2FBF3FBC9F804B05D
:10196000FFF7DEFE94F82830012B4BD07B6E02335C
:101970002362002387F8EA38ABE7606A5CF0EEFE8A
:10198000C0F30113013B022BC2D82046FFF7EEFE45
:101990004846BEE78DF81C3000228DF8443004A97B
:1019A0008DF858301E4B8DF80E502D0A1B688DF89F
:1019B0000D50ADF808301B0C656A8DF80A30032312
:1019C00028468DF80F208DF80C300693154B0A929F
:1019D000089303AB8DF830200993042317920B93DF
:1019E00002AB049301ABCDE90F86CDE90D22CDE921
:1019F0001222CDE91422059350F0E6F9286860F030
:101A0000A9FB7AE75A461021606A62F01DF8ADE73B
:101A100052461321606A62F017F88EE7D81C002442
:101A2000A0080B081D0A0408000000242DE9F04F4F
:101A3000D0F8249083B03F4F0446D9F800000E46FA
:101A4000904660F087FB97F8EA38002B40D0D7F833
:101A5000F058E288DFF8E8B0DFF8E8A0B5FBF2F371
:101A600002FB13538BF822301B0A8BF821303368AA
:101A70005146314E4846C6F8A83006F1A802D8F8BB
:101A80000030C6F8B0300023C6F8B83050F050FA35
:101A9000D8F800200123E188154487F8EA38B5FB1F
:101AA000F1F301FB1353C7F8F0581BB3234BC6F8EF
:101AB000B830637F0BB90AF1140A514648462263D5
:101AC00050F082F9E36A6BB3206B03B0BDE8F08F8E
:101AD000A569E288DFF868B0DFF86CA0C7F8EC58B9
:101AE000B5FBF2F302FB13538BF842301B0A8BF861
:101AF0004130BCE7D7F8EC2848460193B2FBF1F23D
:101B0000726052BA06F1A801ABF8622006F1D00269
:101B100050F00EFA019BD8F8002087F8EA38C7F891
:101B2000EC58C6E7636A186860F014FB206B03B0DA
:101B3000BDE8F08FD81C002400000024490A0408E6
:101B4000A0F20024080000245800002433B910B586
:101B50001C46C36A20469847204610BD66E700BF72
:101B600010B582B00C46019201A9049A8461C26248
:101B70006A460093FFF75AFF02B010BD2DE9F84303
:101B8000DDF820800F4616460021202204461D461F
:101B900065F038F9B8F1000F0CD0D8F80030B8F87B
:101BA0000A20E3811B0C2382D8F804306282E3828E
:101BB0001B0C2383384662F059F8F30619D4431EF0
:101BC000B8B107EB000C01E0013B12D31CF801EDAA
:101BD000BEF12E0FF8D1C01A03F10109421EB9441B
:101BE000032AA8BF0322082BA8BF082390461A4641
:101BF00006E008280246B9464FF00008A8BF0822B0
:101C00004FF02033394620462360636065F09CF82E
:101C1000164B04F10800424649462381837065F063
:101C200093F8611EE21D11F801CFACF16103ACF134
:101C3000200C192B98BF81F800C09142F3D104F118
:101C40000A0011F8013FA3F16102203B192A98BF55
:101C50000B708142F5D1182365832D0CE672237336
:101C6000099BA582E361BDE8F88300BF2020200026
:101C70002DE9F04FDFF8589485B0D9F86400C9F821
:101C8000C407002B60D00C46154601F5FE7603EB29
:101C9000020B1FE0002D64D0D9F8F437AB4200F0FE
:101CA000C780D9F8F037AB4200F0F980D9F8F8379F
:101CB000D9F8FC17AB424BD88D42C0F07481691A39
:101CC000204659F0D9F9013504F5007406F500767F
:101CD0005D4539D0D9F80028AA42DBD8AA1AD9F82C
:101CE0001078D308396B02F0070802338B4202D315
:101CF000BA6B93420BD939461846039359F08CF9C5
:101D0000039B0746002800F06E81C9F810083A7955
:101D1000002A40F01F81D7F828A0BAF1000F00F088
:101D20005B813A6B013520464FF400719B1AFA68CB
:101D300004F5007406F5007608EBC3083B4602EB99
:101D40004822D0475D45C5D1002005B0BDE8F08FE1
:101D50008D42B4D24FF400720021204665F052F853
:101D6000B1E74FF400722946204665F04BF8802316
:101D7000CB4A84F8BE310C2384F8C231D9F8F0176D
:101D8000D9F8E8379142C4F8C611C4F8CA3100F353
:101D90000F81C44A013BC44F82FB0102C81787FB75
:101DA00001C70A44C0EB6212C0EB2730BF4F87FB6C
:101DB00002C7C2EB821C84F8C1018010A1EB0C01A8
:101DC000174420F03F0001310843D117C1EBE71160
:101DD00084F8C0010A4484F8BF21B14A934200F359
:101DE000F380B04AB04882FB0312D91780FB03701E
:101DF0001A44C1EB6212C1EB2031AC4880FB027087
:101E0000C2EB821784F8C5118910DB1B104421F046
:101E10003F0101331943D317C3EBE01384F8C41116
:101E20001A4484F8C3214AF65523A4F8FE314AE740
:101E30004FF0FF3300274FF4F072201D84F8EC318F
:101E4000394684F8ED3184F8EE3184F8EF315223CD
:101E5000237063706123A37084F8E7314123E3703A
:101E600084F8E631722384F8E43184F8E531D9F856
:101E70000838C4F8E83164F0C5FF5523C4F8F071A0
:101E800084F8FE316FF05503C4F8F471C4F8F871AA
:101E900084F8FC7184F8FD7184F8FF3113E74FF486
:101EA00000720021204664F0ADFF814B022203CB7B
:101EB00045F6EB032274227323809023A273A37050
:101EC000F82384F82C200822C4F803006273C4F8B5
:101ED00007106375D9F8F017D9F8E8375B1AD9F805
:101EE000F8172362D9F8FC375B1A4AF6552163626A
:101EF0000023E372E3736377A377E37784F82D30ED
:101F000084F82E3084F82F3084F83130694BA36187
:101F10003E232377012384F83030802384F8403037
:101F2000654BC4F84230654B84F84620A4F8FE1196
:101F3000634A03CBC4F84B101988C4F847009B7858
:101F4000A4F84F1084F8513003CAC4F85200C4F802
:101F50005610B8E64FF400720021204664F052FF9C
:101F60003B6CB8F1000F45D104F1200A002B00F0C2
:101F700081803B6B112253492046CDE90088FFF751
:101F8000FDFD3B6C1A6C002A00F081801B6B5046F3
:101F900011224D49CDE90088FFF7F0FD04F1400A18
:101FA0004FF4E07871E0E91A204659F065F88AE6C6
:101FB000FF22013B84F8C1214FF6FF72A4F8BF2134
:101FC000374A93427FF70DAFFF2384F8C5314FF6B0
:101FD000FF73A4F8C33126E751464FF40072204640
:101FE00064F010FF6FE6231F384A43F8042F9E4227
:101FF000FBD168E6002B7F6C14BF02230123C3EBE7
:102000000813002F3FF45FAE013BBF6C002B01DDD6
:10201000002FF9D1A2464FF40078002F3FF453AEC1
:102020000AEB080303959A460BE00025A8F1200867
:10203000CDE900E5FFF7A2FDBF6CCFB1B8F11F0FEE
:1020400016D93D7907F11C0E112239683B6BAAEBBA
:102050000800002DE9D17A79A8F120083D6942F005
:102060002102CDE900E5FFF789FDBF6C002FE5D126
:10207000039D28E6CDE9008843464FF4F078082216
:10208000D9F8EC172046FFF779FD7F6CC5E750467D
:10209000434611220C49CDE90088FFF76FFD7DE72B
:1020A000FF03FB0083200882975545418180808093
:1020B000AC080B083F00FF0029940E0DB8080B0870
:1020C000C4080B08A4080B08A8080B08DEADBEEF77
:1020D000D81C002410B40F4CBFF34F8F0E4BC3F825
:1020E0005C42BFF34F8FBFF36F8F0C4B03F1300097
:1020F000A3F6F40C5A7A3AB11A7A34F812100CEBAF
:10210000420289B2A2F848190C338342F2D15DF839
:10211000044B704780F4002400ED00E0CC2500243F
:1021200000207047704700BF014854F0E9B800BF75
:1021300048260024084810B4D0F87039D0F8A449D3
:1021400099691A682CB1234600F517605DF8044BB5
:1021500018475DF8044B7047D81C0024014854F020
:10216000CFB800BFAC260024084810B4D0F8D4394A
:10217000D0F8084A99691A682CB1234600F6D410A1
:102180005DF8044B18475DF8044B7047D81C0024D9
:10219000014854F0B5B800BF10270024084810B417
:1021A000D0F8383AD0F86C4A99691A682CB12346AD
:1021B00000F638205DF8044B18475DF8044B704773
:1021C000D81C0024014854F09BB800BF7427002499
:1021D000084810B4D0F89C3AD0F8D04A99691A68E7
:1021E0002CB1234600F69C205DF8044B18475DF89F
:1021F000044B7047D81C00242DE9F04784B08DF8BB
:102200000F30431C00F09F800328044600F39B809E
:10221000824E642303FB0063D3F87009002800F0AA
:10222000928093F8B159202D40F0878093F8B059EF
:10223000012D00F082800125D6F8E87A83F8B059A4
:1022400004E0D6F8E83ADB1B192B66D8856915F44B
:102250000045F6D14FF0640A714B00974FEA4108F0
:102260000AFB04FA41460AEB0309B244212348461B
:10227000CAF8A4598AF8B13940238AF8B2390DF165
:102280000F03CAF8B459CAF894390123AAF89A3945
:102290000A235AF00DFF002873D1BAF89A399BB27D
:1022A000FF2B40F29180DAF87019FF235D48AAF8FD
:1022B00098394B685C4A034043EA08031A434A6072
:1022C000642505FB046505E0B5F89A399BB2002B3F
:1022D00000F08C803A460A21484654F04FF860BB23
:1022E000D5F89439D5F8701913F8010BB5F8982979
:1022F0008862C5F89439013AB5F89A3992B2013B2F
:10230000A5F898299BB2A5F89A39B5F89A399BB2E5
:10231000002BD9D0002AD7D11EE064232020002131
:1023200003FB0463D3F8B42983F8B0190243C3F85C
:10233000B42983F8B10983F8B219B6F8EC3A01333D
:102340009BB2A6F8EC3A002004B0BDE8F087D6F8BE
:10235000E83ADB1B0A2B27D88A6912F08002F6D0F4
:10236000B5F89A399BB2FF2B0ED94B682D4A134012
:102370002D4A43EA08031A43FF23A5F898394A6017
:10238000A2E78AF8B059D8E7B5F89A3925489BB240
:102390004A68A5F89839DBB2024048EA0343134380
:1023A00043F000734B608FE76423202103FB046438
:1023B000D4F8B43984F8B0290B43C4F8B43984F89C
:1023C000B11984F8B229B8E7BAF89A39DAF870196D
:1023D0009BB214484A68AAF89839DBB2024048EA2E
:1023E0000343134343F000734B6069E739464846A3
:1023F0005AF00AFE034600289FD1D5F87029202400
:102400000A48D461516801400120516085F8B14902
:1024100085F8B03985F8B23996E700BFD81C00249A
:1024200048260024009C00FC0000FF0100E800FE9C
:10243000B0F1FF3F00F00A8103282DE9F04706467E
:1024400082B000F3A3808F4C642000FB0640D0F8DC
:102450007079002F00F09A8090F8B159202D40F04B
:102460008F8090F8B059012D00F08A80012580F806
:10247000B059D4F8E85AB86910F4004909D0D4F832
:10248000E80A401B192800F28580B86910F4004959
:10249000F5D14FF0640A7C4F4FEA41080A990AFBD4
:1024A00006FA00955744A244CAF8941922213846E6
:1024B000CAF8A4998AF8B11940218AF8B21941469C
:1024C000CAF8B499AAF89A390A235AF065FD002887
:1024D00040F0BE80BAF89A399BB2FF2B6BD8BAF89D
:1024E0009A39DAF870199BB268484A68AAF898399C
:1024F000DBB2024048EA03431343654A1A434A6089
:102500004FF0640909FB064904E0D4F8E83A5B1B84
:102510000A2B26D88A6912F00402F6D04A6AD9F842
:1025200094391A70B9F89A39D9F89429013B0132D3
:102530009BB2C9F89429A9F89A39B9F89839B9F829
:102540009A29013B92B29BB2A9F898390BB9002A9B
:102550003FD1B9F89A399BB2002B7CD0D9F87019C9
:10256000D8E76423202003FB0643D3F8B41983F88B
:10257000B0290143C3F8B41983F8B10983F8B2292B
:10258000B4F8EC3A01339BB2A4F8EC3A002002B064
:10259000BDE8F08764232020002103FB0643D3F825
:1025A000B42983F8B0190243C3F8B42983F8B109F8
:1025B00083F8B219E4E7DAF87019FF233348AAF870
:1025C00098394B68334A034043EA08031A434A6088
:1025D00096E7D9F8701904E0D4F8E83A5B1B0A2BA7
:1025E00024D88A6912F08002F6D0B9F89A399BB2E1
:1025F000FF2B0BD94B68284A1340284A43EA0803AB
:102600001A43FF23A9F898394A60A2E7B9F89A3922
:1026100021489BB24A68A9F89839DBB2024048EADF
:102620000343134343F000734B6092E7642320217C
:1026300003FB0646D6F8B43986F8B0290B43C6F832
:10264000B43986F8B11986F8B22999E700207047A5
:102650008AF8B09994E7294638465AF0D5FC0346E3
:1026600000288DD1D9F8702920240D48D4615168F3
:1026700001400120516089F8B14989F8B03989F8E1
:10268000B23984E7D81C002448260024009800FCB6
:10269000002400820024FF81009C00FC0000FF0158
:1026A00000E800FE2DE9F0410468D4E90435A86192
:1026B0001A7D1F681F2A49D9203A20212E6801FA65
:1026C00002F242F01802FA602A7D1F2A48D9203A05
:1026D000202101FA02F242F01802F2606A68002139
:1026E0005868016038461160116841F010011160AE
:1026F00093F80880A26941465EF06EFA2D7AE2698D
:10270000304629465EF068FA226A63689468184A7F
:1027100012F80800515D5A686FF30F0222435A60A5
:102720003A5842F001023A50725842F00102725097
:102730009A6842F440429A601A6842F001021A60B4
:102740001A6842F400721A60BDE8F08120212E68F8
:1027500001FA02F242F01802BA602A7D1F2AB6D8A6
:10276000202101FA02F242F01802B260B6E700BF7F
:10277000C8090B08D3B20F2B22D8124B00B503F1B6
:102780007E0E02E00333734517D093F800C08445F2
:10279000F8D193F801C08C45F4D102EB42020A480B
:1027A000997800EB820300F59070C3F8281100EBD4
:1027B000820083F820115DF804FB00205DF804FB23
:1027C000002070470C800A080000002410B40C4C54
:1027D000002304F52F6C01E0152B0CD003EB430212
:1027E00001331CF802108142F6D1144494F9F20A24
:1027F0005DF8044B70474FF0FF305DF8044B7047B5
:10280000D81C002430B5134D002305F69C3C02E093
:1028100001331A2B1BD05CF833408442F8D10CEB07
:10282000C30EDC009EF804E08E45F1D102EB4202BB
:10283000094B254403EB820103F5907395F8A14BF6
:1028400003EB8200C1F8284181F8204130BD00200F
:1028500030BD00BFF0740A0800000024F0B100236E
:1028600010B504460E4894F804E000F52F6C01E022
:10287000152B11D003EB430201331CF802107145F4
:10288000F6D183186179206893F9F22AD3B20F2B1D
:1028900002D8BDE81040B5E7002010BD0020704709
:1028A000D81C002401380E4B0E4A00EBC000D2F8B1
:1028B000D81003EB800310B4D3F8E03183B00A4C96
:1028C000A34214BF022301231943C2F8D810D2F83F
:1028D000D82013400193019B03B05DF8044B70476F
:1028E0000000002400440258000002400138F8B5FE
:1028F00000EBC000124C1D46124B04EB800417463F
:102900000E46D4F8E001984214BFA120A0205AF04E
:10291000B1FCB4F9F601B909C4F8F061C4F8F85192
:102920005AF010FBB4F9F631002B07DB03F01F005F
:1029300001225B090449824041F82320F8BD00BF11
:10294000000000240000024000E100E02DE9F04F0B
:10295000BF4B85B0DFF80CA34FF001090026BD4F37
:102960000AF1F00BA3F5907809E0013609F10109AD
:102970000AF1280A0BF1050B062E00F0FC809AF8EC
:102980000030022BF1D19BF90320541C00F0F6809B
:10299000D2B29446AE4B02EB4204F1B203EB840494
:1029A00033465E46D346CA4699460F2A5FD8AA48A0
:1029B00002E00330B8425AD00378002BF9D14578B1
:1029C0008D42F6D1857801936068D8F8E431A5602E
:1029D0009842257000F04881D8F80832984200F0FB
:1029E0006A81D8F82C32984200F06E81D8F85032C3
:1029F000984200F06E81D8F87432984200F07881E5
:102A0000D8F89832984200F08C81D8F8BC329842BD
:102A100000F08281D8F8E032984200F08C81D8F83A
:102A20000433984200F08281D8F82833984200F0AD
:102A30009981D8F84C33984200F08D81D8F87033E2
:102A4000984200F0B481D8F89433984200F0A881FD
:102A5000D8F8B833984200F0B881D8F8DC339842FF
:102A600000F0BA81D8F80034984200F0A781013212
:102A70000C34D2B2624598D94B46D146DA46B346B9
:102A80001E46002303939BF90420531C7AD0D2B234
:102A9000964602EB42046E4BF1B2B44603EB84045B
:102AA0000F2A5DD86C4802E00330B84258D0037852
:102AB000012BF9D145788D42F6D18678D8F8E451CA
:102AC0006068A660A842267060D0D8F80852A84274
:102AD00000F0F680D8F82C52A84200F0FF80D8F819
:102AE0005052A84200F0FF80D8F87452A84200F07B
:102AF0000481D8F89852A84200F00981D8F8BC5255
:102B0000A84200F0FF80D8F8E052A84200F01E81F1
:102B1000D8F80453A84200F01381D8F82853A842EB
:102B200000F02D81D8F84C33984200F02281D8F87B
:102B30007033984200F02E81D8F89433984200F018
:102B40002381D8F8B833984200F05981D8F8DC33A3
:102B5000984200F04E81D8F80034984200F043814A
:102B600001320C34D2B272459AD966460022002353
:102B7000CAE90423F9E605B0BDE8F08F4FF00F0C69
:102B8000002207E74FF00F0E002282E700231846CD
:102B9000029300EBC0050130019008EB850090F82E
:102BA000FC51002DDCD1324680F8E8312B4B6646D3
:102BB000C0F8EC21029A80F8FD911344CAF8143051
:102BC000132380F8FC310198FFF76CFE039B002B68
:102BD000CCD0DAF814402046FDF712FADAF81000EB
:102BE000FDF70EFADAF81830C168DAF804205962F5
:102BF00040215D60996002F120019D631960C3E985
:102C00000355C3E90555C3E90755C3E90A55C3E9A7
:102C10000C5594B1E1683032DAF81C3059621D620B
:102C20009D63C3E90025C3E90255C3E90455C3E91F
:102C30000655C3E90A55C3E90C5500230198084914
:102C40001A46FFF753FE01238AF80C308DE600BFC9
:102C5000200100248A800A080C800A08E001002470
:102C6000390A0000082800240198029000EBC00EE9
:102C7000431C08EB8E0E03939EF8FC0100287FF4A2
:102C8000F6AE4A461846019BD146DA46B3468EF860
:102C9000E83116465D4B029ACEF8EC5113448EF89B
:102CA000FD91CAF8103014238EF8FC31FFF7FAFDBD
:102CB00001230393E7E601202423CDE90103D5E7AF
:102CC00024200290184664E702204823CDE901033E
:102CD000CCE703206C23CDE90103C7E7482002239A
:102CE0000290184655E76C2003230290184650E7DF
:102CF00004209023CDE90103B8E79020042302903B
:102D0000184646E7D82006230290184641E7B4202B
:102D10000523029018463CE70620D823CDE901039D
:102D2000A4E70520B423CDE901039FE74FF4907396
:102D3000082002939AE70720FC23CDE9010395E7D9
:102D40004FF4907000230290082022E7FC20072314
:102D5000029018461DE702204FF4B473CDE9010339
:102D60000A2083E701234FF4A27E0920CDE9013E2A
:102D70007CE74FF4B470022302900A2009E74FF475
:102D8000A2700290092004E74FF4D8700423029047
:102D90000C20FEE64FF4C670032302900B20F8E6E9
:102DA0004FF4D8700423CDE901300C205EE70323F3
:102DB0004FF4C67E0B20CDE9013E57E74FF4077074
:102DC0000723CDE901300F2050E705234FF4EA7EB9
:102DD0000D20CDE9013E49E74FF4FC700623CDE913
:102DE00001300E2042E74FF40770072302900F20B6
:102DF000CFE64FF4FC70062302900E20C9E64FF494
:102E0000EA70052302900D20C3E600BFE001002414
:102E1000234B5B68C3F3080310B4DBB9EFF31183F2
:102E2000C3B9204B4FF0E02C5A6EDCF81800596EF5
:102E30008A42F9D1996E8842F6D8DC6E4FF47A71E5
:102E400001FB04F3181AB0FBF4F05DF8044B01FB2E
:102E500002007047EFF31181102383F312884FF0C3
:102E6000E0229469136913F4803F0E4B03D00120D4
:102E7000C3F8C0089469586EC9B2D3F8C02881F36A
:102E80001188D96E4FF47A73024403FB01F0001BE2
:102E90005DF8044BB0FBF1F003FB0200704700BF8C
:102EA00000ED00E0D81C0024BE4803780BB90120D7
:102EB000704743682DE9F04F002BDFF8109387B07F
:102EC000D9F8646018DD00F108050024B649D5F88A
:102ED000F430BFF34F8F03F59072C1F85C322033AA
:102EE0009342FAD1BFF34F8FBFF36F8F0134436822
:102EF00005F586759C42EADB90F8F815AB4A04911B
:102F0000A2FB0612AA4BAB4E5209DFF8C4A2A3FBE8
:102F10000213DB0803EB8303A2EB4303DAB206EBF5
:102F2000830B06F538730592009300239846049BA3
:102F3000984500F01481DAF81830DAF80470D3E913
:102F40003D45FFF765FF9C4999F83FEC0122691860
:102F50000190BEF1540F99F83E0C02FA07F204EB0F
:102F6000410104EB400301D1A9F8460C994240F21B
:102F70006A811F88174200F05F815F88174200F066
:102F800070819F88174200F06E81DF8808331742F6
:102F9000ECD11C1B99424FEA640440F25481281B77
:102FA000452828BF452003EB4000834280F04F8135
:102FB00000251F46AC462946CDE9028EB3F800E055
:102FC0000EEA020E8E451CD1B3F802E00EEA020EA4
:102FD000714540F01A81B3F804E00EEA020E714523
:102FE00040F01581B3F80680083308EA020841452D
:102FF00008D1984209D9B3F800E00EEA020E8E45D6
:10300000E2D00233984200F2E580BCF1110FDDE915
:10301000028E40F21C81DCF1150200F11881674933
:10302000D9F8500CD1F820349C4238BFC1F8204464
:10303000019C231A002B14DB614B03449C4201D9F1
:1030400023460533C9F8503CD1F82034052B40F213
:103050000C81053BDBB289F83E3C4FF0FF33C1F8F1
:1030600020343AB105FA02F2CCF1140C012505FA2C
:103070000CF51543534BC5F3C43203EB8202D2F86F
:103080006C0C05F01F0203EB8202D2F86C1CC5F336
:103090004412C5F3842503EB820241EA0031D2F8E1
:1030A0006C2C03EB850341EA0211D3F86C3C41EA36
:1030B0000321454B81EA1122D3F81C3A82EA12120D
:1030C000013302F00F020F2A40F0A380B1F5803FD8
:1030D00080F09F80BEF1540F4FEA111147D03A4A59
:1030E000B1F5606FC2F81C3A4DD0009B998196F8FB
:1030F00058300598834210D0DBF8082033689B1ABB
:1031000033607368DBF830209B1A73600023CBF8C0
:103110000830CBF8303086F858003368013333601C
:10312000DBF808300133CBF808304FF6FF739942D3
:1031300007D1736801337360DBF830300133CBF8AB
:103140003030009B08F101085C360BF15C0B143346
:10315000B8F1080F0AF1200A00937FF4E8AE0123CA
:10316000194A012082F8183B07B0BDE8F08FB9F882
:10317000402CB1F5606F02F10102A9F8402C124A0F
:10318000C2F81C3AB1D199F8013003EB430309EBC3
:10319000C30343445B7C0D2BA7D18023009A937714
:1031A000A5E700BF0400002000ED00E01F85EB5103
:1031B000CDCCCCCC30180020C7FFFF7F000000240E
:1031C00020A10700F0740A08FC100020D81C00247D
:1031D0003C040020A3EB070E254F33F8021C4FEAF6
:1031E0006E0E11400EF1010E87FB0E87A7EBEE77F6
:1031F0004FF0010E012FB8BF0127BD40BC44013F75
:103200000EFA07F73D431F46D8E60433FAE60633C5
:10321000F8E6BEF1540F04D1B9F8402C0132A9F8F8
:10322000402C144A4FF6FF71C2F81C3AD2F8183AF3
:103230000133C2F8183A5AE702331C1B99424FEA8D
:1032400064043FF6ACAE10B1013889F83E0CBEF113
:10325000540F7FF476AFB9F8423C0133A9F8423CF1
:103260006FE7043395E6063393E60023F3E600BFE9
:1032700056555555FC100020264B70B51A785B78D2
:103280009A4242D1244E7368002B22DD06F10800D9
:103290000025224CD0F8AC30BFF34F8F03F1E00291
:1032A000C4F8683220339342FAD1BFF34F8FBFF393
:1032B0006F8F337813B1037F012B20D04269013522
:1032C000716800F586701368A94243F0010313602A
:1032D000E0DCFFF79DFD124BD3F81C4B002C0DDDFD
:1032E00003F5326303EBC4041968083333F8042C84
:1032F000C8689C4242EA0002CA60F5D170BD002352
:1033000080F8FC30FCF7A2FED8E75FF02DFF002824
:10331000B8D170BDD81C00240400002000ED00E0EE
:10332000FC100020800AA0F58010522807D8054B19
:1033300003441B7D0D2B02D8034AD0567047002052
:10334000704700BFF0740A08B8090B0860B18288A2
:103350004FF0B0414FF00043B2FA82F2D1F8800052
:10336000D3400343C1F88030704700BF4FF0B042F4
:10337000D2F88030D2F888100B4003F00103C2F875
:10338000883023B1024BD3F8540C036818477047B8
:10339000D81C00244FF0B042D2F88030D2F8881008
:1033A0000B4003F00203C2F8883023B1024BD3F87C
:1033B000580C036818477047D81C00244FF0B042DF
:1033C000D2F88030D2F888100B4003F00403C2F822
:1033D000883023B1024BD3F85C0C03681847704760
:1033E000D81C00244FF0B042D2F88030D2F88810B8
:1033F0000B4003F00803C2F8883023B1024BD3F826
:10340000600C036818477047D81C00244FF0B04286
:10341000D2F88030D2F888100B4003F01003C2F8C5
:10342000883023B1024BD3F8640C03681847704707
:10343000D81C0024F8B54FF0B043D3F88050D3F82F
:103440008820154005F47875C3F888507DB1084F81
:103450000126B5FA85F4C4F11F0407EB840306FACC
:1034600004F4D3F8540C03689847A543F1D1F8BD90
:10347000D81C0024F8B54FF0B043D3F88050D3F8EF
:103480008820154005F47C45C3F888507DB1084F6D
:103490000126B5FA85F4C4F11F0407EB840306FA8C
:1034A00004F4D3F8540C03689847A543F1D1F8BD50
:1034B000D81C002430B1036882881B691A4214BFEB
:1034C00001200020704700BF10B1036882889A6114
:1034D000704700BF18B1838802681B04936170476E
:1034E00070B50D4682B00446164640B101680C4BDB
:1034F0000C4A0B449B0A02EB4303B3F8E40A59F06D
:10350000B9FEC5F38101C5F3411305F01302CDE9FE
:103510000016A18820685EF0A1FB02B070BD00BF5C
:103520000000FEA7F0740A0800B1D9E770472DE942
:10353000F84FC14F6423044603FB0073D3F8586966
:10354000002E00F06481D3F86089B8F1000F04D038
:1035500098F80630002B40F05A81642303FB047373
:10356000D3F864591DB1AB79002B40F05081631C36
:10357000DBB2B8F1000F04D0152288F8073088F8C4
:10358000062015B11622EB71AA714FF0640A308B38
:1035900059F070FE29460AFB04FA40465FF064FDCC
:1035A000404607EB0A09DFF8B48299F86A3999F8BE
:1035B0006829002B0CBF4FF01E0B4FF03E0B5946F5
:1035C000FFF7B2FF28469D4D594699F869295544A1
:1035D000FFF7AAFF4C220021284663F013FCD9F81C
:1035E0005839974A5B689342C9F87039DFF870928E
:1035F00040F00F8153F0EAF9D9F82030C3F30213F9
:10360000434493F8EC3C03F01F039FED8E7A9FED4B
:103610008E5AB0EE084AD8406423F7EE003A4FF0D5
:10362000000C07EE900A03FB047340F21458F8EE06
:10363000677AB3F86CA9C7EE275A07EE90AA9FEDF8
:10364000837AF8EEE77AC7EE274ADFED817AB0EEAB
:10365000007AE5EE877AA5EE875A25EE844A37EEA2
:10366000856A74EEE72ABAF5C87F0CF1010ED5BF62
:103670004FF4967278226423322307EE90EAD8BF83
:103680004FF416791344A2F13202F8EEE76AC8BF8C
:103690004FF4827907EE903AD4BF41464FF4FA7165
:1036A00066EEA56AB8EEE77AC7EE267A07EE102A2C
:1036B00001EB0902B8EEC77A37EE447A77EEE37A87
:1036C000FCEEE77A17EE903AC7EE267AFCEEE77A40
:1036D00017EE900A07EE909AB8EEE73A07EE902AB6
:1036E000F8EEE77A23EE243A83EE277A37EE453A6E
:1036F00032EEC77AC3EE267A77EEE37AFCEEE77A0B
:1037000017EE901AC7EE267A77EEE37AFCEEE77AA8
:1037100017EE902A02F1020909EB010BB0EE467A8E
:1037200007EE90BAF8EE677AA6EEA77AF4EEC74AEB
:10373000F1EE10FA79DC43EA00095FFA89F9B9F190
:103740000F0F74D841EA02091FFA89F9B9F1FF0F86
:103750006DD81B05000403F07F6392B200F47F0074
:1037600003433C4843EA0C7300EA01210B43134333
:103770006422284602FB04740027C4F8743901232C
:10378000C4F87879C4F87C39C4F88079C4F88479AD
:10379000C4F88C79C4F890795EF012FA94F8B139D3
:1037A000202BD9B21AD194F8B039012B16D024238A
:1037B00084F8B139D4F870391A6822F001021A601D
:1037C0001A6822F480521A601A681A601A6842F065
:1037D00001021A6084F8B11984F8B0790021F07EF2
:1037E00059F0B0FBF37E01241B4D5A0903F01F036F
:1037F000002104FA03F345F82230B07E59F0A2FB11
:10380000B37E5A0903F01F039C4045F82240BDE8EF
:10381000F88F53F0DBF8D9F81C30C3F30213984447
:1038200098F8EC3CEFE6F4461DE7013174E7BEF191
:103830000F0FF8D100239BE7D81C00244826002452
:10384000001C0058286B6E4E00001643002474497B
:103850000000704200FFFF0000E100E0F0740A0881
:103860000044025808B100223AE6704770B50E4C89
:1038700094F8F865AEB104F58764002503E00135DE
:103880002034B5420DD0237F002BF8D0E068002211
:103890000028F4D00135217DFFF722FE2034B54207
:1038A000F1D1012070BD00BF0400002070B590F878
:1038B000EE311C09013C082C0DD8194E054603F0C9
:1038C0000F0336F8140040FA03F2D20703D595F837
:1038D000F921012A01D0012070BD9A402644013A05
:1038E000104063F03FFC96F8FC3C0E4A034402EBA8
:1038F000C30452F83320A38810691840ECD0002389
:1039000095F8EF210221204685F8F931FFF7E8FD0F
:10391000D5F85021136843F008031360DBE700BFBC
:10392000F0740A08481D0024014B53F8200070472A
:1039300050400058014B43F8201070475040005849
:1039400019481A4B01681A4A41F4807130B482B0A8
:103950000160D3F8F410FF24CA2041F48031C3F889
:10396000F410D3F8F41001F4803101915321019D3A
:10397000546250625162D3F8D030DB010CD40C4B4E
:1039800000220C495A659A65DA651A665A669A6683
:10399000196502B030BC7047126D064B9A42EED1E9
:1039A00002B030BC704700BF0048025800440258C3
:1039B00000400058316665422DE9F84FD0F85C713F
:1039C0000446534B00F59676FDB227F0FF09826856
:1039D00000F1E00A103D4846D2F80080A3FB05350F
:1039E0002D0929465DF054F9D4F81C210023B2F5C5
:1039F000807F84F820317FD00DD8102A00F0848099
:103A00005DD8012A46D0042A16BF6FF400616FF01A
:103A100008013C230EE0B2F5805F71D0B2F5803F23
:103A20003BD0B2F5806F15BF6FF400616FF00801F5
:103A30003C230423324608F11806404656F803C0DA
:103A400001EA0C01F150D4F81CB159465CF0CEFDEE
:103A5000BBF5807F2ED024D8BBF1100F3FD037D8D4
:103A6000BBF1010F02D0BBF1040F34D14FF0080CB1
:103A7000336852462946484643EA0C0333604023E4
:103A8000C4F8E8305DF0A8F83B6843F010033B60F1
:103A9000BDE8F88F6FF00801CCE76FF008013C2318
:103AA000C8E7BBF5805F22D0BBF5803F1AD0BBF5DD
:103AB000806F10D108F11C064FF0080CD8E7402A9F
:103AC00015BF6FF400616FF008013C230023B1E7DC
:103AD000BBF1400FCAD03C364FF4006CC8E74FF43E
:103AE000006CC5E708F154064FF0080CC0E708F178
:103AF0001C064FF4006CBBE76FF00801042399E744
:103B00006FF40061042395E76FF4006192E700BF52
:103B1000ABAAAAAA2DE9F04F474D85B02B781BB967
:103B2000012005B0BDE8F08F444B5C6EFFF770F9E3
:103B300095F8F8350193002B00F0C781404B05F54F
:103B4000C065404E0027A3FB042300955B09A6FB3C
:103B500003263D4AF60802F2347806EB8606A3EB0C
:103B60004606D2F8483BC11A1346F2B203F6142AAD
:103B700008EB860689460392B9F1000F05DB009B2E
:103B8000D3F824314B4500F387814FF4B4732A4AAC
:103B900003FB072393F82037002B00F0BF80009D24
:103BA0002A48D5F85C11AB681A68CBB221F0FF0146
:103BB000103BA0FB030326481B09C35C0B44A989E7
:103BC0005C68D368A4B223EA0103C4F11604D3608D
:103BD000072C40F2A3801C4A0121D5F86451D2F889
:103BE0001C3A8B46AE4602970133C2F81C3A0022BB
:103BF0002868944614E0BCF1140F2BDC13F108077D
:103C000048BF03F117073B110CEB271C5F1E013166
:103C100002FA03F30BFA07F78C4247EA030219D3BF
:103C200003468C425EF8040FA0EB0303E3D8CCF10B
:103C300015034FF0150CE9E704000020D81C002400
:103C40001F85EB51CDCCCCCCFC100020ABAAAAAA8E
:103C5000C8090B08BCF1150F029F40F013819F4863
:103C6000C2F38423C2F3441100EB830300EB810110
:103C7000D3F8083DD1F8081D1B0243EA011302F0F6
:103C80001F01C2F3C43200EB810100EB8202D1F8C4
:103C9000081DD2F8082D0B4343EA023383EA1322AE
:103CA00082EA121202F00F020F2A40F0EB80C3F3F7
:103CB0000F134FF6FF72934200F0E480B3F5606F8C
:103CC00000F0EE80AAF80C3098F858200398824251
:103CD00010D0B168D8F80020521AC8F80020D8F8DF
:103CE0000420316B521AC8F804200022B2603263FB
:103CF00088F85800D8F800200132C8F80020B268CF
:103D00000132B2604FF6FF72934207D1D8F8043007
:103D10000133C8F80430336B01333363009C01373F
:103D200008F15C085C3620460AF1140AFFF744FEED
:103D300004F5B4730093019BBB427FF41DAF684947
:103D40000122002381F8182BC1F8483B6549D1F8BE
:103D5000083691F8D8261B6812F0020FD1F81C170C
:103D60001A6A0CBF0A4342EA81021A62019B012BC4
:103D70003FF4D6AE5B49D1F8703791F840281B6804
:103D800012F0020FD1F884181A6A0CBF0A4342EAF3
:103D900081021A62019B022B3FF4C2AE5149D1F855
:103DA000D83891F8A8291B6812F0020FD1F8EC1945
:103DB0001A6A0CBF0A4342EA81021A62019B032B72
:103DC0003FF4AEAE4749D1F8403A91F8102B1B684A
:103DD00012F0020FD1F8541B1A6A0CBF0A4342EAD0
:103DE00081021A62019B042B3FF49AAE3D49D1F83F
:103DF000A83B91F8782C1B6812F0020FD1F8BC1C7C
:103E00001A6A0CBF0A4342EA81021A62019B052B1F
:103E10003FF486AE3349D1F8103D91F8E02D1B6890
:103E200012F0020FD1F8241E1A6A0CBF0A4342EAAC
:103E300081021A62019B062B3FF472AE2949D1F828
:103E4000783E91F8482F1B6812F0020FD1F88C1FB2
:103E50001A6A0CBF0A4342EA81021A62019B082BCC
:103E60007FF45EAE204A52F8203C92F8B0001B6806
:103E7000D2F8F41080071A6A4CBF42EA81020A4362
:103E80001A624DE6164AD2F8183A0133C2F8183AC7
:103E9000AFB14FF6FF7317E7002005B0BDE8F08F14
:103EA00012494A7802EB420201EBC2023A44527CC8
:103EB0000D2A7FF407AF80228AF81E2004E72946E6
:103EC00058220B4862F040FFE3E719460122044BF9
:103ED000C3F8481B83F8182B22E600BFF0740A08C9
:103EE000FC1000200400002004100020D81C002436
:103EF000BC1B00202DE9F8432422D0F850510023A8
:103F00008168C0F8D02104462A6800F5A87622F01E
:103F100001022A602B606B60AB604279C0F8D83137
:103F200080F8CC31C0F8D031C0F86831C0F8D43155
:103F3000C0F870319302C0F8541103F48053BC49A7
:103F4000C0F8583113038D4203F40053C0F85C31BC
:103F50004FEA022303F48063C0F8603100F0AB81C4
:103F60002379D80703F0020100F14081002940F0D5
:103F70007181C4F8641194F8F8314BB1D4F87831F8
:103F800043F00803C4F878314FF40043C4F8883193
:103F900012F00802D4F8D03100F06E81002B00F04E
:103FA000AD8124233046C4F8D0312B6823F00103BF
:103FB0002B6053F033F9012817D0D4F87831002B57
:103FC00040F09F816B68304623F490436B60AB6890
:103FD00023F02203AB60AB6843F00803AB602B68AF
:103FE00043F001032B605CF015FF94F8048018F097
:103FF000010F6FD0D4F82C71002F00F06C810023DA
:104000004FF4807C04F13C09E7632366E36648468D
:10401000C4E91133C4E91433C4E91933D4F8343191
:10402000C4F8B8304FF48063E3644FF48033C4E9DC
:1040300016C35DF05FFF48464EF0A0F8D4F8D431C7
:10404000C4F8C891202B666741D1E368626998B2D1
:10405000EAB3B0FA80F14909C8B394F8CCC1BCF115
:10406000010F34D04FF0220CC4F8D811A4F8AC01E1
:104070000120C4F8D4C1DFF8D0C1C4F8A821C4F825
:1040800078C0DFF8C8C1C4F88C10C4F87CC0DFF871
:10409000C0C184F8CC01C4F888C094F870C08445CD
:1040A0000CD084F8700094F87100012800F0318180
:1040B0004FF4006384F87010C4F890301023C4F8F3
:1040C000D831002384F8CC312023C4F8D0317B6868
:1040D000C4F8443118F0020F00F08680D4F8305153
:1040E000002D00F0EC80D4F83821002304F1B4074F
:1040F000C4F8C0303846C4F8C830C4E92D52402254
:10410000C4F8BC204FF48062C4F8C4204FF480325D
:10411000C4E93333C4E93633C4E93833C4F8D420AE
:104120005DF0E8FE38464EF029F8002840F0A38004
:10413000404B4149414A8D4218BF9D42404801F1E0
:104140006001C4F8C4710CBF01230023C4F8EC6003
:10415000954208BF43F001033032854208BF43F067
:1041600001036030954208BF43F0010330328D42B5
:1041700008BF43F0010301F56871954208BF43F0A1
:10418000010302F55C72854208BF43F0010300F5AC
:104190006870954208BF43F0010330328D4208BF7A
:1041A00043F001036031954208BF43F00103303210
:1041B000854208BF43F00103954208BF43F0010365
:1041C00030328D4208BF43F00103954208BF43F0EF
:1041D00001033BB91B4BEB1AB3FA83F35B09002BCA
:1041E00000F0AF8000236B60BDE8F8830423C4F8BF
:1041F000643171B10C23C4F86431D3077FF5BBAED1
:10420000D4F878314FF4803143F00203C4F88011C0
:1042100028E0D3077FF5AFAED4F8783143F002033E
:10422000C4F878314FF48033C4F88031A3E600BF7E
:10423000000C0058100002402800024040000240DC
:1042400058000240B8040240ED2F09082130090847
:10425000253009080823D107C4F864317FF58BAEF7
:10426000D4F8783143F00103C4F878314FF40033C7
:10427000C4F87C317FE6FEE70BB194F8CC2124230F
:1042800084F8CC213046C4F8D0312B6823F00103E8
:104290002B6052F0C3FF01283FF4A7AED4F8783169
:1042A000002B32D16B68304623F490436B60AB68CF
:1042B00023F02A0392E60423C0F8743150E6D4F8C0
:1042C000DC311A6842F080021A601A6842F040023B
:1042D0001A60BDE8F883D4F8DC311A6842F48072C1
:1042E0001A609A6842F001029A601A6842F020024D
:1042F0001A601A6842F010021A60EBE684F8CC31BA
:104300004FE6304653F084F95CE6304653F080F9CE
:10431000C8E79BB2484605F1240151F093FB002801
:104320007FF4CCAE84F8CC012B6843F480732B600F
:10433000AB6843F00103AB60AB6843F04003AB6094
:10434000C5E66B6050E700BF38B50409013C082C96
:1043500018D80E4D00F00F0335F8140040FA03F2A0
:1043600012F0010210D00122254402FA03F3013BAE
:10437000184062F0F7FE95F8FC3C054A034402EB56
:10438000C30038BD002038BD104638BDF0740A089F
:10439000481D00242DE9F047984D05EB0013D3F894
:1043A000944C002C00F08F80B3F89E7C06464FEAB8
:1043B0000019384658F05EFF01227B0907F01F07FD
:1043C000023BBA40082B0FD8DFE813F0BF00C7004C
:1043D000CF00D700DF000900E700EF00B7008849F1
:1043E000CB6F23EA0203CB6705EB0903013693F891
:1043F000980CF6B2FFF7A8FF074610B11223C6715A
:10440000837105EB090393F8990CFFF79DFF824632
:1044100010B11323C671837105EB090393F89A0C4D
:10442000FFF792FF804610B11423C67183714D448B
:1044300050462E2195F89C2CFFF776F895F89D2C88
:1044400040460E21FFF770F895F89B2C2E21384638
:10445000FFF76AF823686B4A23F001039442236054
:1044600033D0694B9C423ED1654BD3F8902042F447
:104470008042C3F89020D3F8902022F48042C3F801
:104480009020E36843F00043E360A36823F4F073F3
:10449000A3602368DA0716D4A1685C4A5C4B0A4023
:1044A0001343A360E368DB0042D5E268594B134035
:1044B00043F0E863E360236823F400632360236D23
:1044C00023F001032365BDE8F0874D4BD3F8982016
:1044D00042F48052C3F89820D3F8982022F48052F6
:1044E000C3F89820CDE74C4B9C4213D04B4B9C42D9
:1044F00063D04B4B9C426ED1414BD3F8982042F491
:104500008012C3F89820D3F8982022F48012C3F8C0
:104510009820B6E73A4BD3F8902042F40042C3F813
:104520009020D3F8902022F40042C3F89020A8E70E
:10453000236843F480532360B7E73149D1F89C30B6
:1045400023EA0203C1F89C304EE72D49D1F8983098
:1045500023EA0203C1F8983046E72949D1F89030A0
:1045600023EA0203C1F890303EE72549D1F89430A0
:1045700023EA0203C1F8943036E72149D1F88030AC
:1045800023EA0203C1F880302EE71D49D1F88430B8
:1045900023EA0203C1F8843026E71949D1F88C30A8
:1045A00023EA0203C1F88C301EE71549D1F88830A0
:1045B00023EA0203C1F8883016E7114BD3F898209C
:1045C00042F40052C3F89820D3F8982022F4005205
:1045D000C3F8982055E7134B9C427FF452AF03F584
:1045E0000C33D3F89C2042F02002C3F89C20D3F86F
:1045F0009C2022F02002C3F89C2042E7D81C002413
:10460000004402580030014000380040E0FFBF8FF6
:1046100007000020FFFF39D8003C00400034014073
:10462000005001400014005808B51D20FFF78CFE13
:1046300008B183794BB11E20FFF786FE08B183795C
:1046400003B108BD5523C38008BD5523C380F2E7DD
:10465000F8B50E4C94F8F875A7B104F5C064C7F12D
:1046600009070925013D0FD0A6683079FFF76CFED8
:1046700094F8DC10F27908B1FEF732FFAF4204F58E
:10468000B474EFD10120F8BDAB68FFDE0400002058
:1046900008B553F06FFE1B20FFF756FE08B1292323
:1046A000C38058F0E3FD08B12923C3805AF092F883
:1046B0000B485AF07BF80B4B93F8F92C012A01D0E8
:1046C000012008BD084AD3F8D80FC3F8D42F5DF0F5
:1046D0001BFA0023054A184682F8233008BD00BFA4
:1046E00024040024D81C00245C04002400ED00E015
:1046F000F8B50446EFF31185502383F31288D0F800
:1047000030311B6803F001031BB1EDB285F3118852
:10471000F8BDD0F8D021D0F8D4110A4302F021021C
:10472000212AF2D0D0E90912914250D090B24BD850
:10473000194623691B1A9BB2A162002184F8E0117B
:10474000D4F8D0112029E0D1A1698918DDD0B3FABD
:1047500083F25209002BD8D094F8CC010128D4D090
:104760002120A4F8A6314FF0010CC4F8D821C4F8D8
:10477000D001D4F8C401D4F85061C4F8A011A4F851
:10478000A43184F8CCC160B31B4F90F834E0C76308
:104790001A4FE64502650764194FC7640AD090F8BE
:1047A000357080F834C0674515D04FF4006380F849
:1047B00034204365102100222023C4F8D81184F846
:1047C000CC21C4F8D031A0E7081A83B2B4E70123A2
:1047D00080F8E03199E706F1280251F033F900281A
:1047E000E8D100234022326284F8CC31B36843F030
:1047F0008003B36089E700BFC52F0908E92F0908C6
:1048000025300908BFF34F8F0549064BCA6802F4EB
:10481000E0621343CB60BFF34F8F00BFFDE700BFE3
:1048200000ED00E00400FA050021032008B5FFF7C1
:1048300081F872B6FFF7E6FF08B51D480023C0F8FF
:104840008430BFF34F8F436923F480334361BFF358
:104850004F8FD0F8803043F6E074C3F34E3CC3F37F
:10486000C90E4FEA4C1C0CEA0401734641EA8372FC
:10487000013BC0F874225A1CF8D1ACF1200C1CF199
:10488000200FF0D1BFF34F8FBFF36F8FBFF34F8F68
:10489000BFF36F8F4369002223F400334361C0F8F4
:1048A0005022BFF34F8FBFF36F8F72B6FFF7AAFF8F
:1048B00000ED00E003689B0AA3F58013522B57D844
:1048C00070B5384C23441B7D0D2B50D840794FF0E8
:1048D0004C0C354C4FF0020E86080CFB034C03EBDE
:1048E00083000EFA06FEDCF8DC5F03EB4000304488
:1048F000EE68002942D004EB800C46EA0E06CCF8A4
:10490000F414CCF80425EE60EFF31186502282F304
:1049100012882C2101FB0340D0F8F0244AB3111D6A
:10492000C0F81425214A03EB8300214D03EB40001E
:10493000800005441030024452F8040F08B10860AA
:10494000011DAA42F8D10022F6B20A6086F311884E
:104950002C2202FB0342D2F81425CAB14C2202FBDE
:104960000343D3F8DC2FD36843F00103D36070BD59
:1049700070470E4A01FB03212431D4E726EA0E06D4
:10498000EE6004EB8005C5F8F414C5F80425BBE718
:104990004C2202FB0344D4F8DC2FD36823F001033C
:1049A000D36070BDF0740A08D81C0024C82100240C
:1049B000E821002403689B0AA3F58013522B00D939
:1049C00070470F4A13441B7D0D2BF9D84FF04C0C48
:1049D00010B40C4C42790CFB03400223D0F8DC0FDE
:1049E000DA409340C26829B922EA03035DF8044B18
:1049F000C360704713435DF8044BC360704700BF4A
:104A0000F0740A08D81C002403689B0AA3F58013DD
:104A1000522B11D8094A13441A7D0D2A0CD840791B
:104A2000022307494FF04C0CD8400CFB0212834084
:104A3000D2F8DC2FDB431361704700BFF0740A0823
:104A4000D81C002401490248FCF7EAB9C821002417
:104A50000000014001490248FCF7E2B9C8210024E6
:104A60000000014002494FF08040FCF7D9B900BF77
:104A7000F421002401490248FCF7D2B92022002485
:104A80000004004001490248FCF7CAB94C22002446
:104A90000008004001490248FCF7C2B9782200240E
:104AA000000C0040F8B5164D164E2A69EB681A4006
:104AB0004FF00040B2FA82F3EAB120FA03F3012A80
:104AC0006FEA030302EA03012B610A46F2D1D6F82A
:104AD000F4758FB1013F0023BFB2C6F8F435D6F8A4
:104AE000F04534B123682046394698476468002C65
:104AF000F8D10022DCE7F8BDEF6ABFB2EFE700BFF4
:104B000000100040D81C002401490248FCF788B975
:104B1000FC2200240004014010B5064C064804F2B3
:104B20002461FCF77DF904F27C610448BDE8104083
:104B3000FCF776B9D81C002400040140001C00409A
:104B400001490248FCF76CB92823002400180040F2
:104B500001490248FCF764B980230024002000408A
:104B600001490248FCF75CB9AC2300240040014035
:104B700001490248FCF754B9D823002400440140FD
:104B800001490248FCF74CB90424002400480140C4
:104B9000800AA0F5801052280ED8084B03441A7DD5
:104BA0000D2A09D8064B4C2101FB0233D3F8DC2F28
:104BB000136843F001031360704700BFF0740A08E4
:104BC000D81C002410B590F83DE0BEF1020F76D05D
:104BD000144690F83D208446012A02D1022280F832
:104BE0003D200C2921D8DFE801F0072020202220D9
:104BF00020203A2020205200DCF824003449DCF840
:104C00000020C1633349C16490F8341001290CD0ED
:104C1000012180F8341090F83510012952D000227B
:104C20004FF4006380F834204365002010BDDCF8A9
:104C300028002749DCF80020C1632649C16490F8A8
:104C400034100129F1D0012180F8341090F835108A
:104C50000129E4D13832214650F0F4FEE5E7DCF8D2
:104C60002C001B49DCF80020C1631A49C16490F88C
:104C700034100129D9D0012180F8341090F8351072
:104C80000129CCD13C32214650F0DCFECDE7DCF8E6
:104C900030000F49DCF80020C1630E49C16490F870
:104CA00034100129C1D0012180F8341090F835105A
:104CB0000129B4D14032214650F0C4FEB5E75FFA75
:104CC0008EF010BD3432214650F0BCFEADE700BF7F
:104CD000652F09080D2F09081F4B984210B50ED0FB
:104CE00003F5806398420AD01C4A03F5804398423A
:104CF00018BF904203D003F5806398421BD151F056
:104D000065FE174B1749DC69DA69C4F3022CC2F35C
:104D1000022201EB0C0393F8EC3C03F01F03D84094
:104D20000F4B11491B69C3F3C03342EAC303CB5C89
:104D300003FB00F010BD51F049FE094B0949DC6945
:104D4000DA69C4F30214C2F302120B1993F8EC3CB3
:104D500003F01F03D840E3E700000140004001409A
:104D600000440258F0740A08A4090B082DE9F04F1A
:104D7000002393B0AD4C0193AD4BAE4FA3F6A856B4
:104D8000AB4D4FF00009AC4BD5F800A093F86A2367
:104D90004FEA9A23A3F58013522B00F2D0803344BC
:104DA0001B7D0D2B00F2CB80012A17F903B000F018
:104DB0000F81022A02D1BBF1080F3CD14FF000084D
:104DC0004146584611F0ECFB11F072FC90F800C01F
:104DD000BCF1000F18BFBCF1540F14BF4FF0010C11
:104DE0004FF0000C40F0E88008F104081FFA88F842
:104DF000B8F1100FE4D1019B002B00F0AB808B4A7F
:104E00000BE033441B7D0D2B0ED8FB565B450ED0BB
:104E100002F58672944200F0998091680B689B0AB3
:104E2000A3F58013522BECD900235B45F0D14B79CD
:104E300069799942ECD109F101091C35B9F1080FE2
:104E4000A1D1019B04F586740133042B019397D102
:104E50007A4A4FF0010B92F8F83502F58769013371
:104E60000493049B5B4567D0734B99F81020D9F8E5
:104E70000C6093F87E330192002E5DD06F4AD6F815
:104E800000A055686E48B288002D504402924FEA47
:104E9000902040F3AC80654A002405E0013402F51F
:104EA0008672AC4200F0A08011688142F6D15F4B5F
:104EB0004FF48672029D02FB0434019B0322C9F861
:104EC0000C6089F81030029BC9F81840B3FA83F7D8
:104ED000C7F11F035800C9F80430B27186F807B053
:104EE00002FA00F6A16C0122D4F854C0314302FA50
:104EF00000F002FA03F3A164216D0143D4F8AC0081
:104F000021654E490E7899B2002E00F04D8143EA9A
:104F10000C036365CAF81850FBF7C4F80BF1010BDA
:104F20002046FBF793F809F1200940F20113BBF189
:104F3000090F29F8043C94D113B0BDE8F08F013A71
:104F4000012A7FF678AF4FF0000B37E7BCF1000F76
:104F50007FF471AFA86800223A4904E001320C31B5
:104F6000102A00F086834B689842F7D152B250461F
:104F70006979FDF747FC344A4068002351680133E2
:104F8000884216D0102B02F12402F7D14FF0FF33E4
:104F900003EBC3032D4A02EB830393F8FC31002B90
:104FA0007FF449AFC9EBC909214B03EB8903A36027
:104FB00047E7DBB2013BEBE7019B002B7FF41FAF20
:104FC00009F101091C35B9F1080F7FF4DCAE38E7AF
:104FD000BBF1010F3FF4F2AE09F101091C35B9F143
:104FE000080F7FF4D0AE2CE7042C00F049824FF478
:104FF0008671124A01FB052211690591002900F012
:105000000483906001304FF054019C46C4B20D48B7
:1050100082F8101182F811416A1C08494A60059A09
:105020001168976803915179002216E00C00002066
:1050300098820A08B8090B08D02D0024040000202B
:105040000000FEA720010024E0010024000000244D
:1050500001320C30102A00F00C8343689F42F7D1D4
:1050600052B20398CDF818C0FDF7CCFB944B4FF427
:105070008672DFF87C8202FB05310022069B01323A
:10508000D0E90170C1E9077041464868874208D0FD
:10509000102A01F124013FF44FAF486801328742E2
:1050A000F6D1D2B28749013A02EBC20201EB820289
:1050B00092F8FC11089100297FF43EAF4FF48671FD
:1050C00082F8FD410793542401FB05F37E4882F8E2
:1050D000FC419A107D49069300FB02F201F56074D1
:1050E0007748C2EBC20C02EBC202184401EB4C1130
:1050F00004EB4212C0F80CA0C0F8B410C0F8FC20B9
:105100003322C0F8B8208C22C0F80021704A0398DE
:10511000D418FFF7E1FD079B062B00F0B881072BA1
:105120006C496D4B6D4A18BF1A466D4B18BF0B4644
:105130004FF48671DDF80CA0B0FBF3F3B0FBF2F294
:10514000013B5F48013A01FB05019BB2A1F8BC207D
:10515000A1F874302366069B03F1580100F108039F
:10516000504619440023A4F858306366E3655BF0A9
:10517000BBFBDAF8003043F08003CAF80030059B2F
:105180005B791A4607930C2A1CD8DFE812F002025A
:105190001B001B001B00DC011B001B001B00BA01D5
:1051A0001B001B001B009501C7F12F072D0402FAFD
:1051B00007F3324643EA0C036365CAF81850FAF75E
:1051C00071FFABE63E4A4FF4867303984FF0000A36
:1051D00003FB05230222CDF830A059690368099129
:1051E00023F00103CDF83CA0CDF844A00360602378
:1051F0000A934FF48073109301230B930A23CDE994
:105200000D320AAA5BF0F2F90999B1F5807F00F03E
:10521000278240F23F81B1F5805F00F00D82B1F549
:10522000803F00F00382B1F5806F15BF4FF400633B
:1052300008234FF03C0A4FF0040A039A183252F840
:105240000A100B4342F80A30059B1879002840F0F9
:10525000CA81039A136843F0010313600023D8F84E
:1052600004200133974200F0BA81102B08F1240882
:10527000F5D14FF0FF33134A03EBC30302EB830373
:10528000D3F8E001174B984214BFA120A02057F09B
:10529000F1FF079A0C2A00F2A081134B03EB4203A3
:1052A000B3F8887E4FF48673054A104803FB052344
:1052B000DDF80CC000F532611F83002321E000BF40
:1052C00004000020000000246B4CA407C04101240E
:1052D0000C000020D0DD0600449508001055220087
:1052E00040771B0000000240F0740A08FC10002008
:1052F000E0010024944500F09D810133042B00F06F
:10530000BB8151F83320002AF4D1D0F81C2B013294
:10531000C0F81C2B00EBC300039ADB00C0F8202B65
:105320001944089823469022B1F804C047EA0C07B4
:105330008F800027C349FDF7D9FA4FF48673C24A1C
:1053400040214FF4403CC14803FB052A4FF48052F2
:10535000DAF81C502B6843F010032B602B6843F0E5
:1053600014032B60C4E91F77C4E92777C4E92977C0
:10537000DAF82030A167E9B2C4F894300793103905
:105380004FF48063C4F898C0A0FB01014FF4804C37
:10539000C4F88430DAF8B8000909069BC4F8900014
:1053A00025F0FF00DAF80C80C4F8882008F1180214
:1053B0000591039008F11008226703F17002A44BD5
:1053C0001A44DAF8B430C4F88CC063675BF004FCAC
:1053D000D5F800C0069BC4F820C0D5F814C003F16E
:1053E000B8029B4BC4F824C0D5F804C01A44079BEC
:1053F000C4F828C0D5F808C00599C4F82CC0D5F861
:105400000CC0C4F8DC304FF48063C4F8C870C4F832
:10541000CC304FF40033C4F830C0C4F8E030039807
:10542000C4E93077C4E93977C4E93B774FF40067C2
:10543000DAF80031C4F8B880C4F8D0704FF480476F
:10544000C4F8D830DAF8FC30C4F8D470C4F8BC30F2
:105450005BF0C2FB2B68D6F800A063636B69A363A3
:105460006B68E363AB682364EB6863642B6843F0A9
:1054700010032B602B6843F014032B60B5881CE5E8
:105480000323744A82F87F3313B0BDE8F08F724A69
:10549000724B4DE6102900F0E98000F2BD80012931
:1054A00000F0E280042915BF4FF4006308234FF099
:1054B0003C0A4FF0000AC0E603984FF48672624936
:1054C0004FF0020A036802FB05124FF4805123F0EB
:1054D000010351610AAA036000230C930F931193F7
:1054E00060230A934FF48073109301230B930A23D4
:1054F000CDE90D3A5BF07AF84FF0040A4FF40063FF
:105500009BE603984FF486724F494FF0020C0368F4
:105510004FF0040A02FB05124FF4807123F00103DF
:10552000516160220360002310910C930F9311933B
:105530000123CDE90A230A230AAACDE90D3C5BF039
:1055400055F8082379E603984FF486723E494FF0E8
:10555000000A03684FF0020E02FB0512102123F02F
:105560000103CDF830A051610AAA03606023CDF891
:105570003CA00A934FF48073CDF844A0109301230C
:105580000B930A23CDE90D3E5BF030F84FF4006336
:1055900053E603984FF486722B494FF0000A0368D4
:1055A0004FF0020E02FB0512012123F00103CDF89A
:1055B00030A051610AAA036060230B910A934FF453
:1055C0008073CDF83CA010930A23CDF844A0CDE918
:1055D0000D3E5BF00BF808232FE6002762E6DBB2F6
:1055E0000893013B47E6FEF7AFFE824638B1059BC4
:1055F0000221DA79FDF774FF5423AAF80630039AE2
:10560000536C43F40043536423E60223114A82F8A7
:105610007F3313B0BDE8F08F402915BF4FF400630E
:1056200008234FF03C0A4FF0000A06E608234FF02B
:105630003C0A02E6DB0073E64FF400634FF0040A15
:10564000FBE500BF0100000004000020ABAAAAAAED
:105650000C000020D02D0024882A1100A0BB0D00D2
:1056600008234FF0040AE8E50823E6E54FF4006359
:10567000E3E500235B68FFDE00239B88FFDE00BFBD
:1056800008B9002070472DE9F04F00228FB02F217C
:10569000044611F063F80646C8B190F80590A74F8C
:1056A000D0F800A0A7F86498FDF7D8F878B1D0E951
:1056B000015301935DB1DFF8C082002342464146A9
:1056C000486801332431854205D0102BF8D10020E1
:1056D0000FB0BDE8F08FDBB29949013B03EBC30388
:1056E00001EB83019B0091F8FCB1BBF1000FEED1FF
:1056F0001A442F23C7F818A850469383FFF7ECFAF3
:10570000904B984280F0F980012303935B4650460A
:105710000293FFF7E1FA029B8B490022C7F81C387D
:10572000039BC7F82828C7F82028B0FBF3F31B0A0F
:105730008648A1FB0331864B0A090909A0FB020236
:10574000C7F824185208A3F882235200A3F8802334
:1057500097F8552802F0FF01002A00F0DC800222B1
:1057600050467C4987F8552851F006FC0122204616
:1057700087F8602887F8562887F8572887F8582828
:1057800087F8592887F85A2887F85B2887F85C2813
:1057900087F85D2887F85E2887F85F2887F85528FE
:1057A000FEF7D2FD6A4BC3F8840330B12F21C180CC
:1057B0004E21F279FDF794FE654B019A00214FF4DA
:1057C0008064B9F10C0FC3F89413C3F8A413C3F8A1
:1057D000AC13C3E9E252604AC3E9ED11D2F8D80034
:1057E00040F00100C2F8D800D2F8D80000F0010063
:1057F00005900598D2F8D80040F00200C2F8D80011
:10580000D2F8D82002F002020692069A4FF0400227
:10581000C3F890234FF48052C3E9E6424FF480422C
:10582000C3F8A0234FF40032C3F8A8234FF00302BB
:10583000C3F8B02372D8494A02EB4902B2F8A44E29
